:020000040100F9
:1000000018080020A5110001C9450001791100015F
:10001000791100017911000179110001000000003F
:10002000000000000000000000000000010F0001BF
:100030007911000100000000A90E000179110001F2
:10004000810F0001810F0001810F0001810F00016C
:10005000810F0001810F0001810F0001810F00015C
:10006000810F0001810F0001810F0001810F00014C
:10007000810F0001810F0001810F0001810F00013C
:10008000810F0001810F0001810F0001810F00012C
:10009000810F0001810F0001810F0001810F00011C
:1000A000810F0001810F0001810F0001810F00010C
:0800B000810F0001810F000126
:1000B80053B94AB9002908BF00281CBF4FF0FF31C7
:1000C8004FF0FF3000F00CB8ADF1080C6DE904CE2C
:1000D80000F008F8DDF804E0DDE9022304B0704719
:1000E800704700BF2DE9F04F07468C460846099E29
:1000F80015463C461946002B40F0C5808242B2FAAC
:1001080082F746D94FB1C7F1200E00FA07F3BD4078
:1001180024FA0EFEBC404EEA030C4FEA15481FFABB
:1001280085FE220CBCFBF8F908FB19C309FB0EFA83
:1001380042EA03439A4528D9EB1809F1FF3004D263
:100148009A4502D9A9F102002B44A3EB0A03A4B2F1
:10015800B3FBF8F208FB123302FB0EFE44EA034439
:10016800A64514D92C1902F1FF3303D2A64501D9AB
:10017800931E2C44A4EB0E0443EA00401EB1FC403D
:10018800002334607360BDE8F08F4846DDE713460E
:10019800F0E702B9FFDE87BB831A01214FEA154E4B
:1001A800AAB2200CB3FBFEFC0EFB1C330CFB02F8BE
:1001B80040EA0343984562D9EB180CF1FF3004D2AA
:1001C800984502D9ACF102002B44A3EB0803A4B272
:1001D800B3FBFEFC0EFB1C330CFB02F244EA0344A7
:1001E800A2424ED92C190CF1FF3304D2A24202D9F3
:1001F800ACF102032C44A41ABEE7C7F1200CBD40A1
:1002080000FA07F320FA0CF84FEA154E24FA0CFC12
:10021800BC404CEA0302ABB2B8FBFEFC110C0EFB6F
:100228001C800CFB03F941EA0040814523D92818BA
:100238000CF1FF3104D2814502D9ACF10201284406
:10024800A0EB090092B2B0FBFEFC0EFB1C000CFBFD
:1002580003F842EA004398450FD9EB180CF1FF3236
:1002680004D2984502D9ACF102022B44A3EB08034F
:1002780042EA014192E76146E2E76246F6E76046F4
:10028800A3E76346B7E7834205D90EB1C6E9007014
:100298000021084677E7B3FA83F181B9834201D395
:1002A800BA420AD8BC1A60EB030301209C46002E10
:1002B80067D0C6E9004C002165E70846F7E7C1F1B9
:1002C800200C8B4002FA01F522FA0CF420FA0CFB00
:1002D80027FA0CF28F401C4300FA01F34FEA144945
:1002E80013431FFA84FE1A0CBBFBF9F809FB18BB71
:1002F80008FB0EFA42EA0B4292453ED9A21808F1D1
:10030800FF3004D2924502D9A8F102002244A2EBA0
:100318000A029BB2B2FBF9F809FB182208FB0EFE91
:1003280043EA024296452AD9A21808F1FF3304D2BB
:10033800964502D9A8F10203224443EA0040A2EB01
:100348000E02A0FB05939A42CE46984602D306D1E8
:100358004F4504D20138B9EB050E63EB040886B1AA
:10036800B7EB0E0362EB080707FA0CFCCB40CF4053
:100378004CEA0303C6E900379DE74046C7E7434612
:10038800DBE73146FFE600000F4C80B5D4F83C327D
:100398000E4F03F0E04343F003030D4EC4F83C3224
:1003A8004FF40045E56000214FF4004003F0D2FC13
:1003B8003946304603F0B6FFA56000214FF40040EF
:1003C80003F0C8FCECE700BF00088C412C51000189
:1003D80045510001014B1B68184700BF0000002071
:1003E800014B1860704700BF0000002007B50B469E
:1003F800002102460091034800F0E6F803B05DF8DA
:1004080004FB00BFDD0300012DE9F84FB0F8189098
:10041800044619F0080893460DD001290CBF49F08D
:10042800100949F02009A0F818908BF31188BFF340
:100438006F8FBDE8F88F09F00709022907D1204618
:1004480003F07DFF0028F0D00128238B4ED1676987
:10045800218B002F15DA256821F00701C4E90088EF
:1004680041F0010121830026218B01F0070ACA45CA
:1004780002D0A368002B5AD10DB9002E71D00023E9
:1004880056E001F007035A1F012A1ED821F0070180
:10049800062B256889B2C4E900880AD13DB12A46ED
:1004A800638B126801339BB2002AFAD1638341F04F
:1004B80002012046218303F042FF06460028D3D0DC
:1004C800238B43F020032383CDE7042B0CD121F0A9
:1004D800070189B22046218303F031FF0546002831
:1004E800C1D041F0200121830025BCE7032809D1B0
:1004F800226923F00703166843F0060300252383C7
:100508002F46B1E7042806D1226923F0070356686D
:1005180043F00403F2E7052806D1226923F0070314
:10052800966843F00503E9E700252E46E8E701232E
:1005380041F0080121838BF31188BFF36F8FFBB95A
:1005480085BB16B120461F49B0474FF02003EFF393
:10055800118B83F31288BFF36F8F238B23F008036B
:100568002383238BDA0625D5012123F01003238367
:10057800B4F8189009F0070900297FF45EAF54E732
:10058800A1680029DCD0D1F800903B4652462046AD
:10059800D1F804B0D847B9F1000FD1D04946D9F8FD
:1005A8000090F2E729463B46524620462D6803F064
:1005B800E2FEC5E713F020011EBF23F0200302214D
:1005C8002383D5E7AB4300012DE9F04F8B469246D4
:1005D8001C46002591B002909AF8000008B92846F8
:1005E80063E325280AF1010707D05946029B98477B
:1005F8000028C0F25A83013512E2182200210AA805
:1006080004F02AF89AF80130252B78D000221046F9
:10061800964694461646394617F8013B2B2B00F0B0
:100628009D8000F29480202B00F09B80232B00F00B
:100638009B802EB19DF8306046F004068DF830603E
:10064800BCF1000F05D09DF8306046F008068DF823
:100658003060BEF1000F05D09DF8306046F01006FE
:100668008DF8306028B19DF8300040F020008DF8FA
:1006780030002AB19DF8302042F040028DF8302039
:100688009DF8302002F04400442803D16FF386120D
:100698008DF830209DF830202A2B42F080028DF80A
:1006A80030207BD19DF831204B1C42F001028DF89F
:1006B80031201A782E2A0CBF012100219DF8312003
:1006C80061F341028DF8312074D15A782A2A6AD010
:1006D80000210A260133184610F8012BA2F1300731
:1006E800092F40F28E809DF830200E91C2F3400011
:1006F80040EAD17161F341028DF830205AE00AF1E5
:1007080002078DF833309DF83130D90740F149811F
:1007180054F8049BB9F1000F07DA9DF83020C9F1AD
:10072800000942F004028DF830205A0740F1428156
:1007380054F8048BB8F1000F80F241819DF83130F4
:100748006FF341038DF831304FF0FF3837E12D2B2F
:100758000CD0302B7FF46DAF01225CE74FF0010C19
:1007680059E74FF0010E56E7012054E7012652E7FA
:1007780033460CFB0202303A1E4616F8010BA0F174
:100788003007092FF4D9994293D09DF830100D9273
:10079800D20F62F341018DF830108AE70B46002230
:1007A8004FF00A0CE8E79DF83120023342F00402CA
:1007B8008DF831201F4617F8012B6C2A41D025D817
:1007C800682A2BD06A2A46D04C2A4CD01F4617F8E4
:1007D800012B9DF83130782A8DF8332000F2D9802A
:1007E800572A4DD8412A03D0453A022A00F2D1802F
:1007F80004229DF8323062F302038DF8323001236F
:100808009EE006FB01210346303964E7742A26D0AE
:100818007A2ADBD106229DF831300DE05A78682A11
:100828009DF8312006D1012161F3C6028DF83120EF
:100838009F1CCCE71346022262F3C6038DF83130C1
:10084800C5E75A786C2A9DF8312001D10421EBE7DD
:1008580013460322F0E705229DF83130ECE7072222
:100868009DF83130E8E7BDF8303023F4F04323F049
:10087800020343F4804343F00203ADF83030A6E7A7
:10088800A2F15801202900F2848001A050F821F03B
:100898005D0900019B0900019B0900019B090001FA
:1008A8009B0900019B0900019B0900019B090001AC
:1008B8009B090001F90700019B0900015D0900017E
:1008C8001D090001F9070001F9070001F9070001F6
:1008D8009B0900011D0900019B0900019B090001FA
:1008E8009B0900019B090001650900015D090001E0
:1008F800810900019B0900019B0900018109000190
:100908009B0900015D0900019B0900019B09000189
:100918005D09000101209DF8321003F0780360F3AF
:100928000201402B8DF8321002BF9DF8301041F0C3
:1009380001018DF83010632A31D1003B18BF012323
:100948009DF83020C2F340010B4363F341028DF858
:100958003020D8E602209DF83210DEE703219DF80A
:10096800322003F07803A3F1400061F3020243420E
:100978008DF832204341E3E703219DF8322013F03C
:10098800780F61F3020214BF012300238DF832208F
:10099800D6E79DF8303043F001038DF8303000235E
:1009A800CEE79DF93020002AACBF4FF0FF39DDF8C3
:1009B8003490BAE69B077FF5C7AEDDF83880002390
:1009C800CDE90D339DF832309DF8311003F007035F
:1009D800012BC1F3C30135D1CB1E042B22D8DFE88C
:1009E80003F003090921210054F8043BDA17CDE983
:1009F8000A3206E0073424F00704F4E80223CDE9BC
:100A08000A239DF8303013F0030659D03B4652466E
:100A18005946029803F0B3FD0028C0F24681054408
:100A2800BA46D9E554F8043B01294FEAE372CDE907
:100A38000A3202D19DF92830D8E70229E1D1BDF95F
:100A48002830D3E7022B29D1CB1E042B13D8DFE89B
:100A580003F0030A0A12120000232268201D0A92DA
:100A68000B930446CDE7E01D20F00700F0E80223D1
:100A7800CDE90A23F5E754F8043B01290A934FF01E
:100A880000030B9305D19DF828300A9300230B939C
:100A9800B7E70229B5D1BDF82830F6E7042B09D10C
:100AA800E31D23F0070303F10804D3E90023CDE98C
:100AB8000A23A6E7032B04BF54F8043B0A93A0E7D4
:100AC8009DF833007828ABD8622822D825283FF42F
:100AD8008CAD5828A4D1DDE90A010DF12603009355
:100AE8000CAA04AB03F005FD8246B8F1000F0DF126
:100AF80026000CDB9DF83020A0EB0A036FF386126A
:100B080098458DF8302002D9A8EB03030D93804651
:100B18003EE06338152883D801A252F820F000BFC0
:100B2800A90B00010D0C0001290A0001290A000186
:100B3800290A0001290A00010D0C0001290A0001F7
:100B4800290A0001290A0001290A0001670C00018D
:100B5800350C0001390C0001290A0001290A00019D
:100B6800810B0001290A0001350C0001290A000146
:100B7800290A0001350C0001B8F1000FDDF828A0A2
:100B88000ADB4146504603F053FD00260AEB0008F5
:100B9800BAF1000F0CD143E7504603F042FDF4E7E9
:100BA80000260A9B0DF1100A8DF810300DF111087E
:100BB800A8EB0A0306B101339DF83220D00668D5A8
:100BC800023352060D9948BF0E9A0B4448BF9B1832
:100BD800B9F1000F76DD9DF83020A9EB0309C2F3C7
:100BE8008003039353076DD4500661D546B1594627
:100BF8003046029B9847002857DB039B01351E4669
:100C0800302356E01E070FD413F0100618BF202615
:100C1800DDE90A23002BBFF65EAF524263EB4303C4
:100C28002D26CDE90A2356E72B26F1E7002652E7C1
:100C38000A9840B30DF126030093002104AB0CAAD7
:100C480003F057FCBDF83230824603F0EF0343F45B
:100C5800F04343F010030026ADF8323045E70A9B15
:100C680007293FF6DDAEDFE801F00C04060C0808A2
:100C78000C0C1D70D4E61D80D2E6EA17C3E90052B9
:100C8800CEE61D60CCE6DFF8C8A006460AF10508E6
:100C98008EE7110748BF013393E718460393594677
:100CA800029B98470028039B04DA11B0BDE8F08F37
:100CB80020234D444A46002AA5EB090109F1FF39D2
:100CC800EBDC0D4636B159463046029B9847002862
:100CD800EBDB01359DF83230D90601D41A0706D569
:100CE80059463020029B98470028DEDB01359DF8E5
:100CF8003230DB0607D559469DF83300029B9847EA
:100D08000028D2DB01350D9E2E44731B002B16DC08
:100D1800434652465946029803F031FC0028C4DB8A
:100D28000544A944A9EB0503002B7FF779AE594682
:100D38002020029B98470028B7DB0135F2E7594687
:100D48003020029B98470028AFDB0135DDE700BF64
:100D5800575100014FF02002EFF3118382F31288FC
:100D6800BFF36F8F0121044AC2F8401583F311883D
:100D7800BFF36F8F002070470000084120B1034B7C
:100D8800800143F001031847704700BF005000017D
:100D980001F040BC014910220A60704710ED00E0E4
:100DA80072B6404080F31188BFF36F8FBFF34F8F47
:100DB80030BF62B6BFF36F8F704700BF72B649404D
:100DC80081F3118820BF80F3118862B6704700BF95
:100DD80043B2002B08DB012200F01F0002FA00F0EA
:100DE800024A5B0942F82300704700BF00E100E0B7
:100DF800054B420953F82220012300F01F0003FA93
:100E080000F01040704700BF00E100E043B2002B43
:100E180001F10101ACBF03F16043064B4FEA4111F8
:100E2800C9B2ABBF03F5614300F00F0083F80013AC
:100E38001954704714ED00E030BFFFF7FDBF00BF45
:100E480008B5084B084A23F07F039360BFF34F8F20
:100E5800BFF36F8F02F024F903F00EF800F092F957
:100E680002F05EF90000000100ED00E0094A0A49BD
:100E7800936809685867996708494B6843F0805335
:100E88004B60002383F31188BFF36F8F9368986FCB
:100E9800704700BFD40300202851000100ED00E096
:100EA80013498A684FF030001044EFF3098C80E84A
:100EB800F01F202080F31288BFF36F8F0D4F4FF083
:100EC80000668A698A603E60506F0023536780F32A
:100ED800118802F1300090E8F01F8CF3098802F1C4
:100EE800000004B503F073FBBDE804407047000040
:100EF800D403002004ED00E01EF0040F0CBFEFF354
:100F08000880EFF30980816911F8021C0229FFD0DB
:100F180001B503F04DFB01BD42F8203C009B0B4995
:100F280042F81C3C019B21F0010142F8183C029B4D
:100F380042F8081C42F8143C4FF0807342F8043C15
:100F48000023203A02654367704700BFE744000169
:100F5800084B9860436E83F30B88104681F3098829
:100F6800002163B681F31188BFF36F8F002200233D
:100F780003F0B5FAD403002001B5EFF30580A0F122
:100F880010004FEAC0000449014409C99847BDE868
:100F98000140024908470000F04E0001A90F000176
:100FA800044B99689869884203D003494FF08052EE
:100FB8000A607047D403002004ED00E0094B9A6AE8
:100FC8009A6A986A9A6A9A6A9A6A9A6A9A6A10F4FB
:100FD80080106FEA02426FEA124218BF02209A623A
:100FE800704700BF00ED00E00C4B9A6A9A6A9A6A53
:100FF800920508D59A6B9A6A120404D518B19A6AB0
:1010080022F400429A620020044B9A6A9A6A9A6A09
:1010180042F47F429A620870704700BF00ED00E01A
:101028000D4B9A6A9A6A9A6A920708D55A6B9A6A15
:10103800120604D518B19A6A22F080029A6200203A
:10104800054B9A6A9A6AD20658BF9A6A9A6A42F017
:10105800FF029A620870704700ED00E070B53D4BE2
:101068000E465B6800258AB0C3F3080385F3118830
:10107800BFF36F8F02F07F41B1F17F4F11D102F0C2
:101088000C0108290DD0120701D4064601250022BB
:10109800033B8DF80720032B55D8DFE803F0044CF9
:1010A80050492E46F3E72B4BDC6A14F002044AD170
:1010B800DA6A002A15DBDC6A14F0804411D0B269C0
:1010C80032F8021C4DF60272914209D09A6AD2B2E5
:1010D800FAB101200DF10701FFF7A2FF044600E075
:1010E80034689DF8073093B92022314602A803F0EE
:1010F800A8FA099B4DB3C3F3080222B96FEA532338
:101108006FEA43230993204602A903F04FFA0AB075
:1011180070BD9A6A12F47F4F05D001200DF10701C6
:10112800FFF762FFDAE79C6A240C2404002CD8D06D
:10113800FFF744FFD2E700200DF10701CCE70020BC
:101148000DF10701ECE70024CBE723F4FF7323F04C
:101158000103D7E700ED00E0044B5A6942F01002A2
:101168005A615A6942F480625A61704700ED00E0A2
:10117800EFF30880EFF3098101B57246FFF76EFFC0
:1011880001BD00BF002320210348C21801331E2BD4
:1011980082F80013F9D1704700E100E0002080F3E5
:1011A8001488BFF36F8F002080F30A8880F30B88C0
:1011B800FFF7EEFD00200E490860BFF34F8F0D4882
:1011C80080F3088800F03EF8202080F311880A4850
:1011D8004FF40061401880F30988EFF3148002216E
:1011E800084380F31488BFF36F8FFFF729FE0000D0
:1011F80094ED00E01808002018090020BFF34F8F75
:101208000549064BCA6802F4E0621343CB60BFF39A
:101218004F8F00BFFDE700BF00ED00E00400FA05B6
:10122800002318460649D1F89020C2F307229342BA
:1012380000D17047C1F89830C1F8A0000133F6E733
:1012480000ED00E010B572B6002484F31388FFF7B0
:10125800E7FF23464FF0FF300B4A03F1200101332B
:10126800102B42F82100F8D100234FF0FF3003F192
:1012780060010133102B42F82100F8D162B6BFF3A8
:101288004F8FBFF36F8F10BD00E100E0084B9B68E4
:1012980083420BD1EFF3058343B1064B5A6842F002
:1012A80080525A605A6A22F400425A6202F072BDB1
:1012B800D403002000ED00E01FB5094C094A23467D
:1012C8000121094800F0F2F800230393074B01219C
:1012D800E41A01A80193029400F0F2F804B010BDDA
:1012E8000000072000000020085000011001002025
:1012F80010B50B680C7A23F01F0204F01F031A4381
:10130800CB68640923F01F03054943EA440343F00B
:101318000103C1F89800C1F89C20C1F8A03010BDA5
:1013280000ED00E02DE9F04F0F46144606464FF059
:101338000008524D85B0B84509DAD6F80490B9F1DD
:10134800000F3AD0B9F11F0F05D86FF015042046E9
:1013580005B0BDE8F08F19F01F0FF6D1D6F800A040
:101368001AF01F0FF1D1504603F035F9834609EB07
:101378000A00013803F02FF98345E6D11BF1160F57
:10138800E3D05C45E1DDC5F898B0D5F89C10C5F808
:1013980098B0D5F8A03021F01F0143F01F0AD6E914
:1013A80000321A44994202F1FF391ED1CA4508D1C8
:1013B80031465FFA8BF003F017F908F101080C3693
:1013C800B9E73146C5F898B0D5F89C3022F01F022D
:1013D80003F01F031A43C5F89C20E0B203F004F998
:1013E80010F1160FB1D0441CE7E7013BCA45E0B243
:1013F80023F01F03C5F898B008D1D5F8A0203146CE
:1014080002F01F021343C5F8A030E7E7D5F8A01093
:1014180001F01F010B43C5F8A030314603F0E4F892
:1014280010F1160F91D0C5F898B0D5F89C209DF80A
:1014380008300AF1FF3A62F304038DF80830D5F852
:10144800A0309DF808205B0863F347128DF8082048
:10145800D6E900321344009323F01F03411C534480
:10146800A3EB0903C8B223F01F03072803933FF631
:101478006CAF6946FFF73CFFB5E700BF00ED00E041
:101488000522044BC3F89420BFF34F8FBFF36F8F2F
:10149800704700BF00ED00E0BFF35F8F0022024BF2
:1014A800C3F89420704700BF00ED00E010B5034C6E
:1014B8002278FFF737FF207010BD00BF120400200C
:1014C8002DE9F74F294D8A4606464FF00008AB46EE
:1014D800274FD0451BDAD6F80490B9F1000F3FD05A
:1014E80031680846019103F076F80199044609EB42
:1014F8000100013803F06FF884424FF014021D4BCD
:1015080008D06FF0150302FB08F84BF8083003B059
:10151800BDE8F08F14F1160F2C60F8D01978A142AD
:10152800F5DD02FB08B0C7F89840C7F89840D7F82F
:101538009C4000F10801007B64F304000871D7F8AF
:10154800A0000C79400860F347140C71D7F89C1080
:1015580021F01F016960D7F8A01021F01F0129614F
:1015680008F1010814350C36B3E700BFD802002093
:1015780000ED00E01204002038B50E4D2C68082C50
:1015880015D80020FFF788FF0B4B0C4AC3F8C02082
:10159800844205D10A4B00201C70FFF771FF38BD4B
:1015A800696801EB0011FFF7A3FE0130F0E74FF087
:1015B800FF30F4E71450000100ED00E0AAFF4400FA
:1015C80012040020014B1860704700BF040000207F
:1015D800084B70B5C31A0D4607499B10044659437A
:1015E8004022064803F060F82B4601462046BDE835
:1015F80070401847FC020020B76DDBB6784E00013A
:10160800402373B50B4C0093041B0B460D460A4947
:10161800A41061430646094A094803F071F8011EFF
:1016280005DA30462B4602B0BDE87040184702B0D4
:1016380070BD00BFFC020020B76DDBB67947000122
:10164800784E000170B50022012104460520FFF7FD
:10165800DDFB114801F0B4F8104B984218D120690D
:1016680000F0B8F901F0BEF826690D49304602F0DD
:10167800B5FE00280BDB012524690949356404F10E
:101688001C0002F0ABFE002801DB0020E56470BD01
:101698006FF00400FBE700BFE11600010000AD0B8E
:1016A8006850000101460C2300224B43084870B5DE
:1016B800C4184033D4E90E561844A26302F0E1FF7F
:1016C8002DB132462B46BDE870400248184770BD20
:1016D800FC020020784E0001012810B504460AD00B
:1016E80003280CD078B9084B1B6C5B070BD1BDE8FD
:1016F8001040FFF7D7BF00F07BF92046F7E7BDE8B9
:10170800104000F083B910BDFC02002008B54FF06E
:101718002003EFF3118183F31288BFF36F8F114A0F
:10172800136843F0020013F0010310600BD00E4A57
:10173800D2F80C34D2F80C2413F0010303D00B4870
:1017480002F09FFF012381F31188BFF36F8F23B14C
:10175800BDE808400020FFF7A5BF0120BDE808400C
:1017680001F052B84C030020005000413C03002017
:101778001FB500220123CDE902236B46084ACDF8A4
:1017880000D0CDF804D002F0ECFF002805DB4FF4C0
:1017980080420023684601F0B9FE05B05DF804FBFD
:1017A80091470001074BD3E8EF2F22F00201C3E86D
:1017B800E01F0028F7D1D30702D4012003F004B9B1
:1017C800704700BF4C030020C3B21C20014A03FB32
:1017D80000207047FC020020F8B501220646244983
:1017E800D1E8EF3FC1E8E02F0028F9D133B921490A
:1017F80021484B60CB608A6002F003FE731E012B08
:1018080021D803F063F9044610B91C4B1B784BBB75
:101818004FF02003EFF3118583F31288BFF36F8F26
:101828000124174FD7F81834D7F81824D2030BD54A
:1018380003F00303012B01D0012E05D174B185F308
:101848001188BFF36F8FF8BD1CB12846FFF7B6FAB1
:10185800E8E70021212002F07DFAE3E70223C7F838
:101868000433F0E70222064B0546C3F80823D8E7FD
:1018780050030020EC02002018030020160400206A
:101888000050004101220B4BD3E8EF1F002903D180
:10189800C3E8E02F0028F7D10AD100230649CB601E
:1018A800064B4B6003238B60054B186802F0A9BDFB
:1018B800704700BF5403002058030020B1190001ED
:1018C8006803002008B50548054B186003F0D5F8F3
:1018D80000280CBF6FF01200002008BDD84E000190
:1018E8006C03002007B5002200230948CDE9002336
:1018F8004FF40032002302F07DFC064B186802F01A
:10190800C9FD0022044B1A6003B05DF804FB00BF58
:10191800D8000020680300205403002037B51D4D6F
:10192800286883683921DB6898471B4C70B100230D
:101938001A462370217809B1012A20DD174A13803D
:1019480000F09EFF0123237003B030BD2868836830
:101958006A460C211B6998470028E8D1104A019B68
:1019680093FBF2F3009A03EB82030C4A1BB2B2F921
:1019780000209A1A002AB8BF524212B2DAE7094A7E
:101988000139136821700133136003B0BDE830409A
:10199800FFF7A8BF6C0300201304002010040020E8
:1019A80090D003007403002008B5074B1B682BB9BF
:1019B80000F066FF0122054B1A7008BD0448BDE817
:1019C800084001F0B1BE00BF6C03002013040020E2
:1019D80008000020034B044A186000231360034AE0
:1019E8001360704768030020700300207403002010
:1019F8000022024B1A70FFF745BF00BF13040020F6
:101A0800014803F0EAB900BFD8000020024A136871
:101A180001331360FFF766BF7003002008B508485C
:101A2800084B186003F029F838B10748FFF7CAFDDA
:101A38000548FEF7D5FC002008BD6FF01200FBE753
:101A4800C04E000178030020551A00010A2838B555
:101A58000446074D04D1286883680D215B689847C0
:101A680028688368E1B25B689847204638BD00BFA4
:101A78007803002030B5406801F01F05047BB2F5FB
:101A8800001F45EA441585B04FF0000405D12846EB
:101A980001F0A4F9002005B030BDB2F5800FCDE902
:101AA800024433D1B3F1007F0CBF042305238DF822
:101AB8000830836823FA01F1C90719D4B2F1A07F6D
:101AC80016D11E4A1E486909012908BF024605F0B9
:101AD8001F03803352F82330DB0709D40DF10704C4
:101AE8002146284601F0E0F8164B984219D0039495
:101AF80000232846194602AA00F0B0FF124B98426C
:101B080018D10121284601F023F9C3E7B3F1C06FCA
:101B180005D0B3F1007F0CBF02230123C7E70323DD
:101B2800C5E7204601F00EF9074B9842DFD06FF069
:101B38000B00B0E76FF01500ADE700BF00058C4162
:101B480000088C410400AD0B0000AD0B10B501F08E
:101B5800E9F8044668B901F0BDF8084B98420AD183
:101B68002146074801F09AF8224605210A20FFF786
:101B78004DF9002010BD6FF00400FBE70000AD0B2D
:101B88008D1B00014209034670B502D0012A15D009
:101B980070BD0B4E326951680029F9D0012503F058
:101BA8001F030C689D408A682A4002D030464B6863
:101BB8009847002CECD021462468F4E7014EE9E769
:101BC800904E0001A84E00012DE9F043D0F80480A2
:101BD80001F01F0698F80C3085B046EA4316144603
:101BE8000F4630460DF1030101F05EF814F440355C
:101BF80081460BD1304601F019F9424B994503D182
:101C08009DF8030001F098F8002056E000233046C4
:101C1800194602AACDE9023300F020FF394B984259
:101C280002D06FF0150048E0814503D19DF803000C
:101C380001F082F8A50352D540F206332340B3F5EC
:101C4800837F3DD00CD8062B15D004D89BB1022B2E
:101C5800E7D104230FE0B3F5807FE2D101230AE046
:101C680040F2022293422DD0B3F5407F2CD0B3F539
:101C7800007FD6D102238DF8043084F48033C3F377
:101C88000043E0068DF805304CBF0323C4F340132E
:101C980021038DF8063019D50121D8F8043001FA4E
:101CA80007F79F600022304601A900F083FF154B1B
:101CB800984214BF6FF01500002005B0BDE8F0830E
:101CC8000723D8E70523D6E70323D4E7620341BFF8
:101CD8000121D8F8043001FA07F7DF60E2E7E306EC
:101CE8004FF000034CBF0324C4F340141A46304697
:101CF80001A98DF8044000F0B1FE024B984283D050
:101D08008FE700BF0000AD0B0122014B1A6070473E
:101D1800000001410C2903690BD15B6A0649074899
:101D28004B4393FBF0F100FB11331160002053602B
:101D380070476FF08500704790D0030040420F0055
:101D48000022044B0069C3F80021D3F8003101F0E8
:101D5800BDBB00BF000001417FB50569AB6A63B335
:101D6800392901D00C292BD105F110064FF0FF328B
:101D78004FF0FF33304601F0F5FA134B002401937E
:101D880003236946A86A0394029302F03AFB4FF0D2
:101D9800FF324FF0FF33284601F0B8FBA86A02F083
:101DA80079FB0A4BD3F808256A6201225A6030464B
:101DB80001F050FB204604B070BD6FF00A00FAE74E
:101DC8006FF08500F7E700BF111D00010000014119
:101DD80010B504690020FFF7F7FCA0624FF0FF324E
:101DE8000021204602F098FE04F1100002F08DFE5A
:101DF800002201211020FFF709F81020FEF7E8FF64
:101E08000122024B0020C3F8042310BD0000014149
:101E1800F0B54B79012B28D0032B23D110278B79D0
:101E2800032B1FD1CD790DB1012D1BD10A79012AC0
:101E38001DD0022A1FD0AAB914460B684668B3F50C
:101E4800164F36686ED033D8B3F5165F6DD01CD8F0
:101E5800B3F5966F6BD010D8B3F5967F6AD0B3F50B
:101E6800167F6AD06FF085005BE00027D7E74FF454
:101E780080740E22E1E70024FBE7B3F5166F5FD00C
:101E8800B3F5965FEED1394B3EE0B3F5E14F5AD04A
:101E980007D8B3F5615F58D0B3F5964FE2D1344B0C
:101EA80032E047F6122C6345DCD14FF400032BE0F7
:101EB800B3F5613F4BD013D8B3F5963F4AD009D854
:101EC8004DF6C02C634547D0B3F5614FCAD14FF4E6
:101ED8006B0319E0B3F5E13FC4D14FF0EB7313E0A6
:101EE800B3F5612F3BD009D8DFF888C0634539D0F6
:101EF800B3F5E12FB6D14FF0E86305E0DFF878C01D
:101F08006345AFD14FF0805300692C433A43C6F87C
:101F180024352243031DC6F86C2503C983E8030052
:101F28000020F0BD4FF41D03EEE7144BECE74FF42F
:101F38009E23E9E74FF4A033E6E74FF41C33E3E7C9
:101F48004FF41D23E0E70E4BDEE70E4BDCE74FF0C6
:101F58006C73D9E70C4BD7E74FF46503D4E74FF020
:101F68007063D1E74FF08063CEE700BF00B0130085
:101F780000A04E0090D0030040420F000050270000
:101F880000C0750000F03A0000903A012DE9F743CF
:101F98000746002201211320FEF738FF1320FEF721
:101FA80017FF0021D7F804803E69D8F80040D8F818
:101FB8000C90C4F800154846376001AA02F0ABFC43
:101FC800051E4EDB019BD9F800201979186802F02C
:101FD800BAFC051E45DB3846311DFFF719FF0546DB
:101FE80000283ED1D8F80430990712D506F1180018
:101FF80000F0AEFC1E4B984237D1327E42F00043CF
:10200800C4F8A031C4F88C3001239340194AC2F8AF
:1020180004350823C4F8003598F8083053B9C4F8D3
:102028001031D4F810317369C4F834350123C4F879
:1020380038352360D8F804309A075CBF4FF48072B3
:10204800C4F80423DB0644BF4FF48003C4F8043308
:102058003369C4F844350023C4F848350123A36024
:10206800E360284603B0BDE8F0836FF00405F8E7A5
:102078000000AD0B00F00041F8B504460D460769B5
:1020880002F024FD10B92D4B1B788BB94FF02003BB
:10209800EFF3118683F31288BFF36F8F60683146C0
:1020A80002F0F0FB30BB86F31188BFF36F8FEDE7CA
:1020B8006426606802F0E6FB70B9012002F082FC39
:1020C800013EF6D10021212001F044FEF0E786F31D
:1020D8001188BFF36F8FF5E74FF02003EFF31186F8
:1020E80083F31288BFF36F8F6068314602F0CAFB32
:1020F8000028ECD03B691D70626838691368C3F822
:1021080044050120C3F848050020C3F82001D3F88E
:102118002041C3F858015268D3F85801D20641BF8C
:102128000822C3F800254FF48002C3F804230122D3
:102138009A6081F31188BFF36F8FF8BD16040020F1
:102148000123834010B5DC430C4AD2E8EF1F01EAB3
:10215800040CC2E8EECFBEF1000FF6D14FF4803286
:1021680002FA00F0064AC2F80803BFF35F8FBFF314
:102178006F8F0B4214BF0120002010BDC403002044
:10218800006001411949F8B5044622F07F45086806
:10219800C1E90023A5F50013101AB3F5400F22D2A8
:1021A800134B1B681A0A1B065E19124B42F10007F3
:1021B800C3E90067012601F03DFFA30003F1824354
:1021C80003F5B033D3F84025AA420BD11EB94FF41A
:1021D8000002C3F840254FF48030074B00FA04F49E
:1021E800C3F84443F8BD0026E5E700BF28010020F6
:1021F800C80300201001002000600141E1B1012363
:102208000E4A8340D2E8EF1F1943C2E8EC1FBCF125
:10221800000FF7D14FF48033094A8340C2F80433E2
:10222800084BD3E8AF3F23FA00F0C30742BF4FF48F
:102238008002054BC3F80021704700BFC40300208B
:1022480000600141C003002000E100E00D4B186868
:10225800010A0006BFF35F8F0B4BD3F8043518183B
:1022680041F10001B3F5801F0AD2084BD3E90023DE
:10227800904271EB030303D210F1807041F1000129
:10228800704700BFC8030020006001411001002012
:102298002DE9F04F85B0164698460546FFF750FFE2
:1022A8000090FFF7D3FFB04271EB080376D2434B9F
:1022B800301A68EB0101984271F100037BD2404B60
:1022C80003EB0513D3E902ABD84508BF564550D0F8
:1022D8004FF4803326F07F4214464FEA850905F112
:1022E800500709F18249BF00AB4009F5B039BFB2C8
:1022F80007F182470193D9F84005324B07F5B0370B
:10230800D3F80415401A20F07F4021F07F4C0128B3
:10231800C9F840C507D1CDE90221132002F059FDC3
:10232800DDE90221274B01F1020CA4EB0C0020F09F
:102338007F40B0F5000F88BF6446002038603868D9
:102348000198C3F8440324F07F40C9F84005D3F846
:102358000405814206D0201A023820F07F40B0F5EB
:10236800000F19D8A41A24F07F4414EB060A48F188
:10237800000B002412490E982B0101EB0512C850DE
:10238800C2E902AB0F9B536028460099FFF736FF5E
:10239800204605B0BDE8F08F2046B1E701230A4A80
:1023A800AB40D2E8EF1F1943C2E8E01F0028F8D17C
:1023B800B246C346DDE76FF01504E5E7010000010A
:1023C8001801002000600141C003002073B50024FB
:1023D8004FF0FF304FF0FF31164D174BC5F8084549
:1023E800C3E902014FF4803302264FF48002C5F896
:1023F8000433124B0121C5F804631620C3F8802169
:102408002246FEF703FD1620FEF7E2FC01230C4AE4
:10241800AB602B6013600B4B0B4A009320460023E4
:102428000194FFF735FF3046FFF7D6F9204602B092
:1024380070BD00BF006001411801002000E100E00C
:10244800C40300208D210001FFFF7F00354B2DE9DB
:10245800F743D3F8042391070BD5D3F8042142B1ED
:102468000022C3F80421304AD3F804311368013339
:1024780013604FF02003EFF3118183F31288BFF349
:102488006F8F284BD3F80423D2030ED5274AD2E8FE
:10249800EF0F20F00104C2E8E54F002DF7D1002826
:1024A80037D1D3F84021002A33D1002381F3118892
:1024B800BFF36F8F53B3FFF7C9FE4FF02003EFF35D
:1024C800118783F31288BFF36F8F194BD3E9024545
:1024D800A04271EB05024FF0000221D3D3E90016A8
:1024E8004FF0FF384FF0FF391A604FF48032C3E9DC
:1024F80002890C4BC3F8482387F31188BFF36F8F09
:1025080021B122462B4600200096884703B0BDE83B
:10251800F0830022C3F84021D3F840310123C5E7F6
:102528001146E9E700600141C8030020C00300200C
:1025380018010020431C13B520D0012820DDB0F578
:10254800000F1FDA441EFFF781FE0F4BD3E900137B
:10255800401AB0F5000F28BF0024013002190B48BB
:10256800824228BF02460020521809490190009172
:1025780043F10003FFF78CFE02B010BD0348E1E70A
:102588000024E0E7014CDEE728010020FFFF7F0080
:102598008D21000108B5FFF759FE024B1B68C01AD0
:1025A80008BD00BF2801002070B500F48054002C3D
:1025B8000E4E0EBF15460125002110F0200F00F029
:1025C8001F04C0F381120A4818BF30461B0200EBF3
:1025D8008400D0F8004243EA82020A4304F0E0444F
:1025E80042EA45022243C0F8002270BD00088C412F
:1025F80000058C41054A064B00F01F0140090128DF
:1026080008BF134601228A409A60704700088C412F
:1026180000058C410022D30003F1FF7303F58033DA
:10262800D3F80013013107D0D3F800130132D3F8DF
:102638000433202A0B60EED1144BD3F83021072A3B
:102648001AD1D3F83431023B032B0CD8104AD35C8F
:102658004BB1104BD3F80024D10742BF0022C3F876
:102668001421C3F818210B4BD3F80024D20744BF18
:102678006FF00102C3F80024074B1A68074BC3F830
:102688004425074B074A1A60704700BF0000FF0146
:10269800B3510001005000410080FF01006000417B
:1026A800340000200090D00370B501250268B2FA0A
:1026B80082F3C3F11F035E1CDCB210D005FA03F3EA
:1026C80022EA0303D0E8EF6F964204D1C0E8EC3F5A
:1026D800BCF1000FF6D1E9D102480C7070BD024878
:1026E800FCE700BF0000AD0B0200AD0B036810B59E
:1026F800CB40DB0711D4012303FA01F1036841EA57
:102708000302D0E8EF4F9C4204D1C0E8EC2FBCF1A3
:10271800000FF6D1F2D1024810BD0248FCE700BF15
:102728000000AD0B0400AD0BF7B5044618B1012845
:1027380023D003B0F0BD0222204BC3F80823C3F80E
:102748000401D3F804210122DA6001239C4218BF56
:10275800002542F21077194E8DF8073008BF0DF1A9
:102768000705A4B1012CE4D125B1D6F80C3403F047
:1027780001032B70D6F80C3411E000220F4BC3F87C
:102788000803C3F80021D3F800215860DDE725B11C
:10279800D6F8183403F003032B70D6F81834DB038B
:1027A800C7D52DB9012002F00DF9013FD9D1C0E7F5
:1027B8009DF80730012BF5D0BBE700BF0050004162
:1027C800054B1A792AB95A71012218601A710348FF
:1027D80070470348704700BFCC0300200000AD0BD2
:1027E8000C00AD0B08B50520FEF702FB10B905205B
:1027F800FEF7EEFA0122034BC3F81825C3F8142597
:1028080008BD00BF0050004108B510B101282AD00A
:1028180008BD1A4BD3F81824D3F81814C9030DD4DB
:10282800D3F81424D20710D5D3F81C2402F00302DD
:10283800012A07D10222C3F80423E9E702F00303BF
:10284800012B02D00020FFF76FFF012200210B4B64
:10285800C3F81825C3F80411D3F804110221C3F8EA
:1028680004139A60D4E70022044BC3F80021D3F87C
:102878000021C3F804031860CAE700BF00500041F4
:10288800104BD3F80C24D3F80C14C80316D5D10771
:1028980014D5D3F81824D20310D50B494A7902F07D
:1028A800FF006AB9C3F81C01D3F81C218022C3F8C1
:1028B8000423012205484A711A6170470448704789
:1028C8000448704700500041CC0300200000AD0BC5
:1028D8000500AD0B0B00AD0B1B4B10B5D3F8002159
:1028E80052B10020C3F80001D3F800210122C3F837
:1028F8000823164B1B689847134BD3F804215AB189
:102908000022C3F80421D3F804210222C3F80823C3
:102918000E4B01201B6898470B4BD3F81C2192B132
:10292800D3F8042312060ED50022C3F81C21D3F8CD
:102938001C118021C3F80813044B03205A71BDE809
:1029480010401B68184710BD00500041CC03002000
:1029580001460148FFF7A8BE38000020036803F0CD
:102968001F020260034A04485B09012B08BF104696
:10297800704700BF00088C4100058C41034B0830AC
:1029880033F81000C0F34010704700BF3C0000202F
:1029980070B50D4C00F1080334F813300546DA051C
:1029A8000E4607D5C3F3432304EBC302526854F819
:1029B80033309847A3682BB131462846E268BDE812
:1029C8007040184770BD00BF3C000020124A083014
:1029D80032F8103010B4D9051BD5C3F3432123F4C2
:1029E800F85322F81030002002F1100434F8023BAA
:1029F80013F4807F03D0C3F34323994209D00130F5
:102A08003028F3D10023054810BC42F83130FFF7D5
:102A18006DBE10BC704700BF3C000020B000002015
:102A280038B50246FFF7AAFF0B4C02F1080560B162
:102A3800002134F815305B0B9B0003F1824303F54A
:102A48002043C3F81015C3F810151046FFF7BEFF52
:102A5800002324F8153038BD3C0000202DE9FF4143
:102A6800044616461D4621B34E4F00F1080837F8B4
:102A780018309B0706D5FFF781FF18B14A4804B004
:102A8800BDE8F08100232046CDE900338DF80E30F3
:102A98008DF80F300DF10F020B460DF10E0101F00C
:102AA80095FF37F8183023F0020343F0010327F8A5
:102AB800183096B13B483378726804F1080630F84C
:102AC80016108F070CD5002AD8D130F8162022F01E
:102AD8001C0242EA830320F81630CDBB3348CEE708
:102AE80021F02001C904C90C20F81610002AECD0E6
:102AF800032BC3D892F800C04FEA8C0202F182423D
:102B080002F5204223B9C2F81035C2F81035DCE7C7
:102B1800D2F8107541EA4C3127F00307C2F8107556
:102B2800D2F8107541F0200127F44F3727F4407789
:102B3800C2F81075D2F810E5270207F47C574EEA60
:102B4800034E47EA0E07C2F8107520F81610BCE7C6
:102B58002046D5E90067FFF739FF002EBED0114D9A
:102B68002B689E4204D16B689F4201D100220AE083
:102B78000F480DF10F01FFF797FD0C4B98427FF4BA
:102B88007EAF9DF80F2005EBC20308345F6035F86F
:102B9800143045F8326043EA422343F4807325F841
:102BA80014309BE73C0000200400AD0B0000AD0B87
:102BB800B0000020F0B50446164685B019B3344D70
:102BC80000F1080735F81720930703D4FFF7D6FE5E
:102BD80000285AD112F01C0F02D04B78012B54D088
:102BE80001238DF80F3000234A1CCDE9001320463D
:102BF8008B1C0DF10F0101F0E9FE35F8173043F099
:102C0800030325F8173016B9224805B0F0BD204A4D
:102C180004F1080732F81700830736D5002396F821
:102C280000C020F020004FEA8C0101F18241C0046D
:102C380001F52041C00CC1F8103522F81700C1F881
:102C480010357578002DDFD0D1F81035B67823F41B
:102C5800991323F4F853C1F81035D1F810E523027D
:102C680003F47C532D0443EA0E0305F44035340580
:102C78002B4304F4801440EA4C30234340F02000F6
:102C8800C1F8103522F81700BEE70348BDE700BFBA
:102C98003C0000200000AD0B0400AD0B014BC3E964
:102CA800020170473C00002008B50246FFF766FEA7
:102CB80038B1054B083233F8123004485B0B0B70FF
:102CC80008BD0348FCE700BF3C0000200000AD0B36
:102CD8000400AD0B38B50F4C94F87850BDB960229C
:102CE800294604F1100001F0B7FC0A20FEF770F83D
:102CF800094B0A48C3F87C51D3F87C214FF00042B5
:102D0800C3F80423012384F87830636738BD044886
:102D1800FCE700BF3C00002000A000410000AD0B14
:102D28000500AD0B034B93F87800003818BF01205D
:102D3800704700BF3C00002001460148FFF7D6BCA1
:102D4800AC00002001460148FFF7AEBCAC000020F3
:102D580037B50446FFF712FE1E4B04F1080233F89C
:102D68001230E8B113F002051AD15B0B9A0002F198
:102D7800824000F5214002F18242056002F52042BE
:102D88000068D2F8100540F00100C2F8100529B11A
:102D9800012202FA03F3104AC2F8043303B030BD2B
:102DA800C3F38203042B11D0052B11D001A8019481
:102DB800FFF7D4FD019B0169D94001F001010231FF
:102DC800204603B0BDE8304001F047BE0321F7E7D5
:102DD8000221F5E73C00002000A0004108B50246AA
:102DE800FFF7CCFDC0B10F4B02F1080133F81130E9
:102DF800990711D401225B0B9A400B499B0003F100
:102E08008243C1F8082303F52043D3F8102522F0A4
:102E18000302C3F8102508BD0021BDE8084010468C
:102E280001F01BBE3C00002000A00041104B00F147
:102E3800080233F8123013B5DB07044616D5FFF73E
:102E4800CDFF2046FFF7ECFD01A80194FFF786FDB2
:102E5800019B00EB8300D0F8003203F0E04343F01D
:102E68000203C0F80032034802B010BD0248FBE775
:102E78003C0000200000AD0B0400AD0B2DE9F04F25
:102E8800002501222C46634B6348644987B01E68BD
:102E980036B1D0F8046316421EBF1C601E68154385
:102EA80004338B424FEA4202F1D15B4BD3F87C31B9
:102EB800002B00F091805A4F5A4E3B6A04933B62B4
:102EC800336A059333624FF000080DF1100A4FEA98
:102ED800481301934FE093FAA3F3B3FA83F3019AEB
:102EE80003EB020B504B0BF1080233F812204FEAA8
:102EF800DB04C2F382030093994601230BF0070019
:102F080003FA00FC1AF80400910820EA0C000AF8F9
:102F1800040003A8CDF80CB0FFF720FD039C4B0775
:102F280004F1800450F82440C4F301442DD55846D8
:102F38004946FFF72DFD03A8CDF80CB0FFF70EFDAD
:102F4800039AE4B2803250F82220C2F3014294423C
:102F580007D10021584601F080FD2146584601F06E
:102F68007CFD03A8CDF80CB0FFF7F8FC0122039B09
:102F780002FA03F303625AF82830002BABD1B8F1F8
:102F8800000F1BD14FF00108A1E7022C0CBF032151
:102F98000221584601F061FD009B032B04D0022C4E
:102FA80007D1B9F1010FDCD149465846FFF7F0FCCB
:102FB800D7E7032CD5D1B9F1020FF4E7164AC2F8C6
:102FC8007C31D2F87C313A6A04923A62336A0593CA
:102FD800336213437FF477AF012415B907B0BDE816
:102FE800F08F95FAA5F3B3FA83F304FA03F29B0082
:102FF80003F1824303F52043D3F81005D3F81015E5
:10300800C0F30520C1F3014125EA0205FFF7C0FC22
:10301800E3E700BF00A1004100A0004120A100415A
:1030280000058C4100088C413C0000200E4B70B517
:1030380053F82040013053F82060A64200D870BDF4
:10304800D4E900352846984765B1EB6830B10028C7
:10305800B8BF4042FF28A8BFFF2018705A7842F036
:1030680001025A700834E8E714510001012208B53A
:10307800094B02201A70FFF7D9FF01F00DF9032060
:10308800FFF7D4FF00F012F9FDF77EF9034A137B2E
:1030980023F00103137308BD16040020B0010020BB
:1030A80008B50348034A0021121A01F00BFD08BDB8
:1030B80010010020180400200023012270B586B0FA
:1030C800CDE904230F220193CDE9023218230F4DD5
:1030D8000F4E03FB00550F4906EBC016044601EBE3
:1030E80000214FF4807230460B4B009500F082F8B7
:1030F800737B0A482C75013423F0040300EBC424C5
:103108007373EE606C6006B070BD00BFD40300201E
:103118003001002018080020EB4A0001180900209F
:1031280080B52D4BA6B003F5006282F3088883F3BF
:103138000A880024E023294D294E85F82230EC77AF
:103148002C766C76AC7685F820406B6A254F43F474
:10315800E0236B6285F82340FDF7FEFFFDF71AFEBA
:103168004FF0FF33AB62EB62FEF706FAFEF7A4F806
:1031780040F20113ADF8243006ABB360CDE91F442B
:10318800229401F079FC2046FFF750FF0120164DEC
:10319800FFF74CFF00F04AFD144BB561059301237E
:1031A80013494FF48062CDE9034328463B46CDE9F5
:1031B8000144009400F01EF806466A7B284622F077
:1031C80004026A7301F029FD2046FFF775FF3A46AD
:1031D80031462846FDF7BCFE1809002000ED00E046
:1031E800D403002075300001B0010020B751000160
:1031F800180400202DE9FF410E9E00F158050673C2
:103208000426C0E916550025044646730D9EC0E9FC
:1032180006558673D61D0C9A26F00706C0E91916BE
:103228008560C573C56602920B9A01EB0608019288
:103238000A9A00924246FDF76FFE054B65659B684A
:1032480003B11B6F4046236704B0BDE8F08100BF9F
:10325800D4030020F0B5002787B00597109FDDE95B
:10326800126504970F9F044603970E9F02970D9FC0
:1032780001970C9F0097FFF7BDFFB5F1FF3F08BF0F
:10328800B6F1FF3F05D055EA060305D1204600F008
:10329800C7FB204607B0F0BD32462B46024904F171
:1032A800180000F04DFEF4E7434C00012DE9F0430F
:1032B800294C2A4D87B02646AE4204F130040FD37C
:1032C80000F0C8FA4FF4004640F2E737224CDFF826
:1032D8009090AC4220D307B0BDE8F04300F08ABC20
:1032E80054F8043C54E90C01059354F8103C049339
:1032F80054F8143C039354F8183C029354F81C3CBB
:10330800019354F8203C009354E90A23FFF772FF15
:1033180054F8303C5E65CEE7636A5A1C0DD0002134
:10332800384623EAE373C3FB060151EAC333D4F8F2
:10333800008004D1404600F073FB3034C9E74FF4F5
:103348007A720023FCF7B4FE02460B4608F1180017
:10335800494600F0F5FDF0E7D4000020D400002035
:10336800434C00012DE9F341044617461E464FF031
:103378002003EFF3118883F31288BFF36F8FC368BC
:10338800324A6BB180689168884219D057EA0603BF
:1033980018D188F31188BFF36F8F6FF00F000CE01E
:1033A800916891F90E100133E36093682161A3607D
:1033B80088F31188BFF36F8F002002B0BDE8F08159
:1033C8002169F0E791F90E1090F90E306FF07E0246
:1033D8009942A8BF19469142B8BF11468B422EDDCB
:1033E80001F08BFB054622464146CDE90076184898
:1033F80000F072FB0028E0D04FF02003EFF31186B5
:1034080083F31288BFF36F8F236821699C420AD027
:103418004BB193F90E309942A8BF19466FF07E035D
:103428009942B8BF1946A06801F067FB00B945B1D9
:103438003146074800F0FCF96FF00A00BDE70025A7
:10344800D1E786F31188BFF36F8FF5E7D403002027
:1034580017040020836870B504466BB3194A926854
:1034680093422CD1C368012B03D9013BC3600020D0
:1034780070BD4FF02003EFF3118583F31288BFF37B
:103488006F8F0169806801F038FB204601F036FC37
:103498000026A06050B190F90E202261866701F0E5
:1034A800BCFB2946084800F0C3F9E0E7E06085F373
:1034B8001188BFF36F8FDAE76FF01500D8E74FF088
:1034C800FF30D5E7D40300201704002038B50446A0
:1034D8004FF02003EFF3118583F31288BFF36F8F4A
:1034E80001F00CFC48B10022826701F096FB2946E6
:1034F800BDE83840044800F09BB9D4E902329A424A
:1035080018BF0133A360F2E71704002013B54FF08A
:103518002004EFF3118184F31288BFF36F8F84685E
:1035280044B1013C846081F31188BFF36F8F0020A0
:1035380002B010BD52EA030406D181F31188BFF32B
:103548006F8F6FF00F00F3E7CDE9002302460248C2
:1035580000F0C2FAECE700BF170400202DE9F04F95
:1035680004464FF0FF384FF0FF39454E85B04FF015
:103578002003EFF3118783F31288BFF36F8FD4F81A
:1035880080508DB9022104F1980001F0D1FA002889
:1035980035D100233946CDE90089029304F1880228
:1035A800384800F057FCE2E7D4F884202B689542AD
:1035B800C4F8803001D1C4F88430D4F8983043F08E
:1035C8000203C4F89830EB6823F0040343F00103C6
:1035D800EB606B6887F31188BFF36F8F28469847B5
:1035E8004FF02003EFF3118B83F31288BFF36F8F33
:1035F800EB68990723F001020BD4EA600EE004F1AE
:10360800900500220121284601F090FB0028F8D1FE
:10361800BFE7306823F00303EB6070B9D4F8983043
:1036280023F00203C4F898308BF31188BFF36F8F2F
:10363800D8059CD400F006FB99E700273B46D0F854
:1036480000A04268014695420CD1016897B972689A
:103658003160824200D1716040F8083BFFF736FFC5
:1036680039460023BAF1000FD8D050460F46DAF891
:1036780000A0E6E772683960904208BF7760EBE720
:10368800F803002017040020F8B5C36804469A0719
:103698000E46C3F340051FD45F071FD40A680AB952
:1036A80082680A60D80742BFA3680225336037687A
:1036B80058BF01257FB31B4B9B68BB4211D101F05A
:1036C80005FA80F00100C0B2D7F89830D907C3F3E3
:1036D800800223D53AB140B96FF00F05002333605B
:1036E80013E00020F0E71B07F6D400232360D7F887
:1036F800843063B9C7E92044384601F024FAE36806
:1037080043F00403E3603368A3602846F8BD1C60F7
:10371800C7F88440F0E76FF01505DFE76FF0120592
:10372800DCE700BFD40300200146014801F026BAB7
:1037380038020020F0B50446002089B0C4E9200012
:103748000E9D04F18800C4E9220004F19000C4E948
:1037580024001DB32879002840F2011008BF012079
:10376800C4F8980000204FF0FF364FF0FF37CDE93E
:103778000330CDE90100CDE906672046084B0094E7
:10378800FFF768FD25B1296811B1204601F0A4F9B9
:10379800204609B0BDE8F04001F0A1B90120DFE7FB
:1037A8006535000138B5074D2C6854B1FEF7F2FEB7
:1037B800054B04441C6128680021BDE8384001F02D
:1037C800E8BA38BD08040020D4030020F8B5044640
:1037D8000D464FF02003EFF3118783F31288BFF3F0
:1037E8006F8F00214FF4004C40F2E7300D4E00235C
:1037F80031614FF47A72E4FB0C01FCF759FC002CA0
:10380800094B0ADC1860094BB0681D60FFF7CAFF56
:1038180087F31188BFF36F8FF8BD0228B8BF022065
:10382800F0E700BFD40300200804002004040020AF
:1038380049B9EFF3058030B9054B9A699B689A42FC
:1038480001D0FDF713BB81F31188BFF36F8F704769
:10385800D40300204FF02003EFF3118183F3128883
:10386800BFF36F8F044B9A68D37B013BD37381F30B
:103878001188BFF36F8F7047D403002038B5024614
:103888000C4801F0C4F90C4D044600B9EC68AB686B
:103898004AB95A7BD20606D1A26922B9DA897F2AA7
:1038A80001D9AB6138BD9C4202D02046FFF77AFFB0
:1038B800AC61F7E7F0030020D403002070B590F95D
:1038C8000D200146002A437B04DA03F07F0343738B
:1038D80001F065F94B7B154A63F07F034B7302F1E6
:1038E8001C05D2E90734AB421BD0D3B191F90E6065
:1038F80093F90E0086420FD0801B00280CDD586813
:10390800C1E90030016059609068BDE87040431A11
:1039180058425841FFF7B2BFA34202D01B68002BA0
:10392800E6D1C1E9005421601162EDE7D40300201B
:1039380038B54FF02003EFF3118583F31288BFF3F6
:103948006F8F174B174A9C6811688C4207D1204625
:10395800FFF728FF85F31188BFF36F8F38BD00216B
:103968001160114A1268C2B1E2897F2A15D8627BB8
:10397800D20612D10D4A94F90E10126891420CDB4E
:103988000B4A944209D01A69824203DC2046FFF7A9
:1039980095FFDCE7121A1A61DCE70022FBE700BF9B
:1039A800D4030020000400200804002004040020A0
:1039B8003001002070B490F90D20437B002A2ADBE7
:1039C800DA0628D1826932BB144A63F07F03437355
:1039D80002F11C05D2E90734AB4217D0B3B190F914
:1039E8000E6093F90E108E420BD0891B002908DD5A
:1039F8005A68C0E9003210605860002070BCFFF7B8
:103A08003DBFA34202D01B68002BEAD1C0E9005495
:103A180020601062F1E770BC704700BFD40300203B
:103A280010B54FF02002EFF3118482F31288BFF330
:103A38006F8F427B510704D484F31188BFF36F8FD3
:103A480010BD22F004024273FFF7B4FF2146BDE81F
:103A580010400148FFF7ECBE1704002008B590F9A4
:103A68000D200146002A437B04DA03F07F034373E9
:103A780001F095F8044B9868431A58425841BDE83C
:103A88000840FFF7FBBE00BFD40300202DE9F0413A
:103A9800064615461C464FF02003EFF3118783F3C3
:103AA8001288BFF36F8F01F0EAF887F31188BFF32C
:103AB8006F8FB4F1FF3F08BFB5F1FF3F08D02A462A
:103AC800234606F118000349BDE8F04100F038BA72
:103AD800BDE8F081434C000110B50C46064B114679
:103AE8009868064B1860DDE90223FFF7CFFF2046F0
:103AF800BDE81040FDF7BAB9D40300200004002047
:103B0800F8B504464FF02003EFF3118683F31288CB
:103B1800BFF36F8F437B49B2DA0633D182698ABB20
:103B280003F07F03437301F03AF8437B174A63F0CD
:103B38007F0343738173104650F81C3F83421BD0A8
:103B4800D3B1176A93F90E50A94210D06D1A002DFF
:103B58000DDD5A68C4E9003214605C600120FFF78B
:103B68008DFE012086F31188BFF36F8FF8BDBB422D
:103B780002D01B68002BE5D1136AC4E900031C605E
:103B88001462EBE70020A173ECE700BFD403002028
:103B980070B50446183001F0E6F84FF02003EFF353
:103BA800118683F31288BFF36F8F94F90D20637B1E
:103BB800002A05DA03F07F032046637300F0EFFF65
:103BC8000B4D637BA86843F010036373031B5842D3
:103BD8005841FFF753FE86F31188BFF36F8FAB6828
:103BE800A34203D1BDE8704001F007B870BD00BF23
:103BF800D403002010B54FF02003EFF3118483F3B2
:103C08001288BFF36F8F084B00209A68D37B01336B
:103C1800D373FFF733FE84F31188BFF36F8FBDE8CA
:103C2800104000F0EABF00BFD40300200021044B7D
:103C3800084603F11C02C3E90722FFF7C7BD00BF0E
:103C4800D4030020F8B54FF02003EFF3118583F378
:103C58001288BFF36F8F1A498868437B03F07F038C
:103C6800437300F09CFF08468B685A7B62F07F0222
:103C78005A7350F81C2F82421CD0DAB10F6A93F99C
:103C88000E6092F90E40A6420FD0A41B002C0CDD4A
:103C98005168C3E900210B6053600120FFF7EEFD76
:103CA8002846BDE8F840FDF7E1B8BA4202D01268EC
:103CB800002AE6D10A6AC3E9000213600B62ECE746
:103CC800D403002050EA01032DE9F04105460E46D1
:103CD80003D1FFF7B7FF002033E06FF001044FF086
:103CE800FF33241A63EB0103012C73F1000302DA9A
:103CF80001F069F844194FF02003EFF3118883F3BA
:103D08001288BFF36F8F104F104BB8681860FFF719
:103D1800A5FEB8680E492A463346183000F010F957
:103D2800BA684046537B43F010035373FDF79EF87F
:103D380001F049F8201A63EB0303012873F100032B
:103D4800C9DBBDE8F08100BFD403002000040020D7
:103D5800434C0001B1F1FF3F08BFB0F1FF3F08B588
:103D680006D1084B9868FFF713FF4FF0FF3008BDE6
:103D7800FFF7A8FF4FF47A7380FB0303C00B40EAF8
:103D88004340F4E7D4030020014B9868704700BF14
:103D9800D40300202DE9F04104464FF02003EFF34F
:103DA800118683F31288BFF36F8F037BD9070BD576
:103DB80086F31188BFF36F8F404080F311884FF06E
:103DC800040002DFBDE8F081437B1A0704D586F3BF
:103DD8001188BFF36F8FF5E723F0200242F0080146
:103DE800D20920D14173A36813B1204600F0DFFE49
:103DF80004F1180000F0B7FF4FF0000804F158076D
:103E0800A56DBD4200D0B5B90120FFF737FD104BB5
:103E18009B68A342DBD1EFF30583002BD7D1304653
:103E2800FDF724F8D3E703F05F0343F00803437377
:103E380000F0B5FED7E7284600F0B9FE05F11800F6
:103E480000F091FF2846C5F87880FFF7B3FDD7E763
:103E5800D4030020D3B5DDE90667089CCDE90067E7
:103E6800FFF73AFE1CB1034B9B685B69236002B005
:103E7800D0BD00BFD403002008B50648064A07494C
:103E8800121A00F021FEBDE80840054A0549064817
:103E980000F01ABE0000002010010020FC510001B3
:103EA80000000000FC51000100000020034B1B68CB
:103EB8000BB9FEF76FBB0020704700BF0C04002051
:103EC800104B10B51C689C4208BF0024FFF7EEFF9A
:103ED800A4B1D4E904321B1A62EBE070B3F1004FCD
:103EE80070F100020ADA0028ACBF18460020064B21
:103EF8001B6913B19842A8BF184610BD6FF0004067
:103F0800F5E700BFB8000020D403002030B50368EF
:103F180068B10A4A5268904209D043B1D3E90421F2
:103F2800D0E90445121941EB0501C3E904214268AF
:103F380013605A600023C0E9003330BDB800002088
:103F4800B3F1FF3F08BFB2F1FF3FF8B504461F4683
:103F5800154667D081604FF02003EFF3118683F395
:103F68001288BFF36F8F6FF001024FF0FF3C531BB5
:103F78006CEB0703002B1BDB2B4BD3E90013521A06
:103F88006CEB0303551B63EB0703012D73F1000270
:103F9800BCBF01250023C0E904532448D0E9003CF4
:103FA800834218D1C4E9000CCCF80040446026E0F4
:103FB800FFF77CFF013547F100072D1847EBE07745
:103FC800C4E90457E9E7521A65EB07059C45C4E9BB
:103FD8000425E7D01B68002BE4D0D3E90417D4E903
:103FE80004258A4275EB070EEDDA8A1A67EB050598
:103FF800C3E904255A68C4E9003214605C600368A8
:1040080083420BD09C4209D1FFF75AFF18B1084BE5
:104018001B69834202D00021FEF78CFA86F31188CF
:10402800BFF36F8FF8BD00BF30020020B80000203A
:10403800D40300202DE9F8430446FFF779FC4FF03C
:104048002003EFF3118583F31288BFF36F8F244F9A
:10405800DFF89080244E3C60D8F800003B6840456B
:104068004FEAE371D6E9002E0BD050B1D0E9044CE9
:10407800A34271EB0C0916DAE41A6CEB010CC0E9E7
:10408800044C00249B184EEB0101C6E900313C604A
:10409800FFF716FF2146FEF74DFA85F31188BFF3A7
:1040A8006F8FBDE8F883A2184EEBE4710023C6E9D0
:1040B80000210022C0E90423FFF728FF85F31188B7
:1040C800BFF36F8F836898474FF02003EFF3118594
:1040D80083F31288BFF36F8F3B681B1B3B60BBE702
:1040E8000C040020B80000203002002010B54FF06A
:1040F8002003EFF3118483F31288BFF36F8FFFF768
:10410800D5FE0146054BD3E90003081843EBE171DE
:1041180084F31188BFF36F8F10BD00BF30020020F9
:1041280070B504464FF02003EFF3118583F312882E
:10413800BFF36F8FD0E90A32013342F10002022B3C
:1041480072F1000322D300F042FED4E90A320130B2
:1041580041F10001C01841EB0201012871F100038F
:1041680032DB00F034FE013041F10003D4E90A21CA
:1041780080186FF0010243EB01034FF0FF31121A70
:1041880061EB030320461A49FFF7DAFE236B01337C
:104198002363236A73B185F31188BFF36F8F2046B9
:1041A800236A98474FF02003EFF3118583F31288B1
:1041B800BFF36F8F54F8186FA64200D04EB985F33D
:1041C8001188BFF36F8F70BD6FF001024FF0FF339E
:1041D800D8E7304600F0F5FC0023B36785F3118873
:1041E800BFF36F8F3046BDE8704000F016BD00BFCA
:1041F800294100011146B3F1FF3F08BFB1F1FF3F6C
:104208002DE9F0470646DDE908201C468946984610
:104218003ED0B0F1FF3F08BFB2F1FF3F1546074659
:1042280014D050EA020311D06FF001039B1A4FF02B
:10423800FF3363EB0003002B08DA022A70F1000356
:10424800BCBF02250027013D47F1FF376FF001038E
:104258005B1A4FF0FF3363EB0403002B09DA0129E3
:1042680074F10003BCBF0121002411F1FF3944F1AE
:10427800FF38304600F077FD00234A463363304666
:104288004346C6E90A57BDE8F0470249FFF758BE5A
:10429800BDE8F08729410001024A0349034800F0BC
:1042A80041B800BF56510001BC510001C95100017D
:1042B8001FB50024084B4FF48062029302AB0093B1
:1042C80006494FF0FF3306488DF80C40FFF732FAE5
:1042D800204604B010BD00BFF051000118110020A5
:1042E80038020020034658B1426802F00302012A4E
:1042F80003D0032A04D1026812B1002098607047E5
:104308006FF0150070474268034602F00302032A63
:104318004FF00002816014BF104600685A60704771
:10432800002070470FB407B504A951F8040B019198
:10433800FCF75CF803B05DF804EB04B07047038B3E
:1043480013F0070305D10368002B0CBF00200320DE
:104358007047022B05D1438B002B14BF002004208B
:104368007047012B05D10368002B0CBF00200520E6
:104378007047002070472DE9F0410D460746194661
:10438800281D90461E46FFF7BEFF044638B1334647
:10439800424629463846A446BDE8F0416047BDE894
:1043A800F08110B44FF02004EFF3118284F31288E7
:1043B800BFF36F8F416110BC0121FCF725B810B520
:1043C8000C4640B139B1081DFFF78CFF28B9A36826
:1043D80033F0030301D06FF0150010BD38B50C465B
:1043E800054658B151B10B6843B14B6833B11C2233
:1043F800002100F031F900202C6138BD6FF0150064
:10440800FBE770B504460E46FFF7D9FF051E31DB02
:104418004FF02003EFF3118183F31288BFF36F8FFE
:104428004FF6FF75638B208BAB4200F007022ED04E
:10443800022A0ED1013363831546012381F31188C3
:10444800BFF36F8FB3B1002331462046FFF793FFC8
:1044580010E0830701D0062A0ED100233360636879
:1044680093B9C4E90066154662B90A462046022196
:10447800FBF7CAFF284670BD052A0CBF6FF08505FB
:104488006FF004050023D9E71E606660EBE76FF064
:104498000A05F7E710B54FF02003EFF3118283F315
:1044A8001288BFF36F8F048B04F00704022C0AD024
:1044B800012C0CBF6FF004006FF0850082F31188A7
:1044C800BFF36F8F08E0438B013B9BB2438323B953
:1044D8002146FBF799FF204610BD2046EEE704462B
:1044E80008B5084611461A46A047FFF74DFCFCF7E9
:1044F800CDFE2DE9F84F9A46D37880466F2B0F46AC
:104508001546A3F1410B29D024D8582B14BF0A26ED
:104518001026DDF828903246002340463946FBF73E
:10452800C7FD092AD4B21ED83034B045E4B277F1B9
:10453800000309F8014D01D3D14511D82B789B060A
:1045480005D5082E15D1AB7843F00803AB70484663
:10455800BDE8F88F03F0F703702BD7E70826D8E7F4
:1045680080460F46D7E7BBF1190F94BF373457344D
:10457800DBE7102EEBD1AB7843F01003E6E72DE92B
:10458800F0410746884615461E461446B442A4EB39
:10459800050002D33EB923782BB1414614F8010B2C
:1045A800B8470028F2DABDE8F081704700F06FBA2A
:1045B8000146006800F06BBA00210120FFF7F6BF42
:1045C80008B5FCF739FCBDE80840FCF7E9BC436EC8
:1045D80083F30B88704740E800F313F4803FD8B2A8
:1045E80008BF6FF0150070477FB50A894E890B68C0
:1045F8004D6802F01F0242EA461200938DF8082027
:1046080023F01F036A1E134423F01F030728039394
:1046180004D86946FCF76CFE04B070BD6FF0150055
:10462800FAE7034600201A5C02B970470130FAE73E
:10463800034600201A5C0AB1884200D17047013055
:10464800F8E710B5431E0A44914200D110BD11F895
:10465800014B03F8014FF7E70346C9B202449342FE
:1046680000D1704703F8011BF9E74FF0FF3070479E
:104678000C220369C9B201FB0233186C00F0070071
:1046880070474FF02003EFF3118283F31288BFF3D2
:104698006F8F036803F0C00343F00203036082F3E3
:1046A8001188BFF36F8F7047034670B50069C9B2B0
:1046B8004FF02004EFF3118684F31288BFF36F8F55
:1046C8000C2505FB0104246C14F0C00401D0A2429F
:1046D80010D1012205FB01000264002086F3118835
:1046E800BFF36F8F28B95B6803EBC1014B6898472C
:1046F800002070BD4FF0FF30F0E78022FFF7D4BFF5
:10470800F8B5069F05460469C9B24FF02000EFF3DB
:10471800118C80F31288BFF36F8F0C2606FB0146BD
:10472800306C00F0070EBEF1010F11D1376400267E
:104738008CF31188BFF36F8F46B90C2000FB01443E
:10474800C4E90E236B6853F8313098473046F8BDFA
:1047580000F0C000874214BF4FF0FF366FF07706B5
:10476800E6E713B580240094FFF7CAFF02B010BD36
:1047780010B41C240069CBB203FB0400002110BC58
:1047880010470020FEF740B81046FEF79FBE08B558
:10479800FDF736F9BDE80840002000F015B9FDF72F
:1047A80071B8436800205B681B690B6070474368F9
:1047B80002EA01005B6821EA020198600020D960E2
:1047C8007047436800205B68996070474368002021
:1047D8005B68D960704743685A68536821EA0300E8
:1047E8000B4090600020D3607047036930B558686B
:1047F80058B10024814212D108689D6854B98D428D
:10480800586000D19860002008606AB9002030BD67
:104818002846EFE78D42206008BF9C60F3E70568F3
:104828000446002DF4D13AB15A6898680A60596074
:104838000028EBD19960EAE76FF01500E7E70B462F
:104848000269D2E9010183E8030000207047436848
:104858001B68D3F88004C3F8800470474368026972
:104868001B68D3F8100150B10020526912780A7001
:10487800C3F81001D3F8102101221A6070474FF0D5
:10488800FF30704702680346D2F8580140B95B68A8
:104898009B0706D4D2F82001003818BF01207047C2
:1048A8000120704742681368D3F80413C90518D566
:1048B800D3F82011A9B14FF02000EFF3118180F354
:1048C8001288BFF36F8FD3F8200130B10020C3F8EE
:1048D8002001D3F820010120D86081F31188BFF3AB
:1048E8006F8F5268D20615D54FF02001EFF3118271
:1048F80081F31288BFF36F8FD3F8581111B10021DB
:10490800C3F800154FF48001C3F8081382F3118827
:10491800BFF36F8F704730B543681360037A03F1B4
:104928000053013BDB00456814681D44AC4202D9C2
:104938006FF0010030BD65798D4202D008341460F3
:10494800F1E70020F6E72DE9F0411646054600EBB1
:104958008107BD4202D10020BDE8F0812C68230CFC
:10496800C4F30328032B25D8DFE803F002131A1F2A
:1049780004F03F04C6F80C45286800F03F00FDF736
:1049880039FE4346012228681146FDF70DFE04351D
:10499800DFE704F03F04C6F8144543460022F2E777
:1049A80004F03F04C6F80845E6E704F03F04C6F8FB
:1049B8001045F2E76FF08500CEE7002008B5FCF758
:1049C8001DFC004700F005BAFDF7AEBEF7B5174667
:1049D800DDE90846019001A81D46FDF7BFFF019BD0
:1049E800002F00EB830014BF02230023002918BF07
:1049F80043F00103002D14BF4FF00C0C4FF0000CD6
:104A0800002C43EA0C0314BF4FF4706C4FF0000CF9
:104A1800002E43EA0C0314BF4FF4403C4FF0000C47
:104A2800D0F8002243EA0C0322EA030301B1097813
:104A38000FB13F787F0019430DB12D78AD00394390
:104A48000CB1227814020D430EB1367836042C438B
:104A58003443C0F8004203B0F0BD1FB50DF10F0399
:104A6800019300238DF80F101A4619460093FFF79B
:104A7800ADFF05B05DF804FB704738B1C36818880E
:104A8800C0F30800A0F58073584258417047F8B544
:104A980005460E464FF02003EFF3118783F3128883
:104AA800BFF36F8FFFF770F9314604462846FFF7CA
:104AB80084FF87F31188BFF36F8F2046BDE8F84065
:104AC800FCF7E4BBFFF7C8BDFFF7BBBDEFF30580FC
:104AD800003818BF012070476FF057007047FEF785
:104AE8009FBF08B54FF02002EFF3118382F31288BD
:104AF800BFF36F8FFCF754F9F4E790F90E308B424F
:104B080001D0FEF7FDBF0020704703460020C3E92F
:104B18000033C3E9020070473AB18A4205D3C0E9BD
:104B28000212C0E90000002070476FF015007047BE
:104B3800012302688B4022EA0303036022FA01F092
:104B480000F00100704720B100228830114600F0C3
:104B5800EDB8704713B5019008464FF02003EFF306
:104B6800118483F31288BFF36F8F01A9FEF78CFDC0
:104B780084F31188BFF36F8F02B010BD10B5FFF733
:104B8800E9FF041E09DD4FF02003EFF3118083F3E2
:104B98001288BFF36F8F00F024F8204610BDD0E9CB
:104BA800003213605A600023C0E90033704708B52B
:104BB800FFF7F5FF437B23F0020343730023836071
:104BC80008BD08B54FF02003EFF3118183F3128875
:104BD800BFF36F8FFFF7EBFF81F31188BFF36F8F80
:104BE80008BD034620B9EFF305820AB9FCF73EB9C0
:104BF80083F31188BFF36F8F70474FF02003EFF3F3
:104C0800118083F31288BFF36F8FFFF7EABF034663
:104C18000068834208BF0020704710B54FF020039A
:104C2800EFF3118483F31288BFF36F8FFEF7C2FE90
:104C380084F31188BFF36F8F10BD014610B54FF094
:104C48002003EFF3118483F31288BFF36F8F10F8FA
:104C58000B3C13F0280F0DD151F8103C18380BB14C
:104C6800FFF7A5FF11F80B3C23F0140301F80B3CE8
:104C7800FEF7A0FE84F31188BFF36F8F10BD38B51F
:104C880004460D46FEF7EAFE637B43F002036373B6
:104C980095B12B68A5609D4215D0A3B194F90E106B
:104CA80093F90E20914208D0521A002A05DD5A685D
:104CB800C4E9003214605C6038BD6A68934202D06F
:104CC8001B68002BECD16B68C4E900531C606C6056
:104CD800F2E710B54FF02003EFF3118483F3128845
:104CE800BFF36F8FFFF793FF014608B1FFF75FFF30
:104CF80084F31188BFF36F8F084610BD38B54FF0A5
:104D08002003EFF3118583F31288BFF36F8FFFF74A
:104D18007EFF044620B1FFF74AFF183000F023F861
:104D280085F31188BFF36F8F204638BD38B54FF033
:104D38002003EFF3118583F31288BFF36F8FFFF71A
:104D480066FF044650B181674261FFF730FF1830B3
:104D580000F009F82046FEF72DFE012085F31188A2
:104D6800BFF36F8F38BD10B54FF02002EFF31184F9
:104D780082F31288BFF36F8F03683BB1FFF7C6F861
:104D8800002084F31188BFF36F8F10BD6FF01500FA
:104D9800F7E770B504460D464FF02003EFF3118690
:104DA80083F31288BFF36F8FFFF78AF8012805DDB8
:104DB800A04203DB29462046FDF7BCFB86F3118899
:104DC800BFF36F8F70BD08B5FFF790F908BDFFF707
:104DD8008DB908B1FBF7D2BF704710B50446FFF78D
:104DE800C2FFB0B9636A0BB12046984704F11800B6
:104DF800FFF76FFF68B1FFF710FF4FF02003EFF3E5
:104E0800118083F31288BFF36F8FBDE81040FFF75E
:064E1800E8BE10BD70476A
:024E1E00FFFF94
:084E2000CCB2FF7F010000008D
:104E28005D0D0001000000004D160001784E0001E4
:104E3800551B0001A84E0001551B0001904E0001B2
:104E4800951F0001C04E0001251A00010000000056
:104E5800D523000100000000B94200010000000055
:104E6800D91D0001D84E0001CD1800010000000036
:104E78006C510001585000013C500001C000002056
:104E8800FC020020F84F00018951000198500001F0
:104E980074500001C80000207C030020F24F00017C
:104EA8007B510001A850000174500001C40000208B
:104EB80088030020EC4F0001A551000104510001B6
:104EC800F0500001D000002018000020E64F00013B
:104ED8009751000100000000B8500001CC000020EC
:084EE80094030020E04F0001DB
:104EF00000000000C145000100000000C1450001A4
:104F000000000000C145000100000000C145000193
:104F100000000000C1450001E1280001CB4900016B
:104F200000000000C145000100000000C145000173
:104F300000000000C145000100000000C145000163
:104F4000852E0001CB49000100000000C145000191
:104F500000000000C145000100000000C145000143
:104F600000000000C145000100000000C145000133
:104F7000D84E0001491D000100000000C14500019C
:104F800000000000C1450001C04E0001AD48000115
:104F900000000000C145000100000000C145000103
:104FA000000000005524000100000000C145000180
:104FB00000000000C145000100000000C1450001E3
:104FC00000000000C145000100000000C1450001D3
:104FD00000000000C145000100000000C1450001C3
:104FE00000800080FF7F00800080FF7F00800080C5
:0E4FF000FF7F00800080FF7F00800080FF7F39
:024FFE00FFFFB3
:105000000338FDD8704700000000002000000000B9
:1050100006000100020000001C5000010000000119
:105020005D51000106000000E0FF0F0100000020BC
:105030006551000121000000E0FF06207917000102
:10504000034700016B4700010000000079460001A2
:10505000000000000000000015170001AD1700015E
:105060008B4700019747000109160001D91500017F
:1050700000000000D11B0001AB470001B747000151
:10508000CB470001D5470001DF4700017D1A000131
:10509000F347000100000000FFFFFFFF00058C4107
:1050A0000000000000000000FFFF000000088C412D
:1050B00000000000010000000000000000000000EF
:1050C00000000000611D00011D1D000100300141B4
:1050D000E850000101000000210000000B00020068
:1050E000E0000100CA000300D850000104000000E5
:1050F000654800018120000157480001191E000188
:10510000474800010030014102000000000000009B
:10511000CC500001284E0001584E0001604E0001A5
:10512000704E0001784E0001F5FFFFFF6E7266358C
:10513000333430646B5F6E7266353334305F637066
:10514000756E65740048656C6C6F20576F726C6487
:10515000212025730D0A00286E696C2900464C41F8
:1051600053485F30005352414D5F3000636C6F63B2
:105170006B403431303035303030006770696F400B
:105180003431386330383030006770696F40343103
:105190003863303530300074656D704034313031F3
:1051A000303030300075617274403431303133301A
:1051B000303000010000006D61696E0076332E31E1
:1051C0002E39392D6E637331002A2A2A20426F6FDF
:1051D00074696E67205A6570687972204F53206237
:1051E00075696C64202573202573202A2A2A0A00F9
:0C51F000737973776F726B710000000020
:1051FC00294300017346000100000000251900013D
:10520C0000000000000000000000000000C20100CF
:10521C00000103000000000014040020150400200D
:10522C00000000000090D003FFFFFFFF0000000013
:10523C000000000000000000000000000000000062
:10524C000000000000000000000000000000000052
:10525C000000000000000000000000000000000042
:10526C000000000000000000000000000000000032
:10527C000000000000000000000000000000000022
:10528C000000000000000000000000000000000012
:10529C00000000000000000000000000FF00000003
:1052AC000000000000000000B8000020B800002042
:1052BC0000000000000000000000000000000000E2
:0452CC0000000000DE
:0452D000FFFFFFFFDE
:1052D400000000000000000029410001000000005F
:1052E4000000000000000000F0000020F00000209A
:1052F400A7470001000000000000000000000000BB
:085304000000000000000000A1
:04000005010011A540
:00000001FF
