:10000000780F0020091900002D520000C1180000CF
:10001000C1180000C1180000C1180000C11800007C
:10002000000000000000000000000000B915000002
:10003000C1180000000000005D150000C11800009C
:100040004916000049160000491600004916000034
:100050004916000049160000491600004916000024
:100060004916000049160000491600004916000014
:100070004916000049160000491600004916000004
:1000800049160000491600004916000049160000F4
:1000900049160000491600004916000049160000E4
:1000A00049160000491600004916000049160000D4
:1000B00049160000491600004916000049160000C4
:1000C00049160000491600004916000049160000B4
:1000D00049160000491600004916000049160000A4
:1000E0004916000049160000491600004916000094
:1000F0004916000049160000491600004916000084
:100100004916000049160000491600004916000073
:100110004916000049160000491600004916000063
:100120004916000049160000491600004916000053
:100130004916000049160000491600004916000043
:100140004916000049160000491600004916000033
:04015000491600004C
:1001540053B94AB9002908BF00281CBF4FF0FF312A
:100164004FF0FF3000F00CB8ADF1080C6DE904CE8F
:1001740000F008F8DDF804E0DDE9022304B070477C
:10018400704700BF2DE9F04F07468C460846099E8C
:1001940015463C461946002B40F0C5808242B2FA0F
:1001A40082F746D94FB1C7F1200E00FA07F3BD40DC
:1001B40024FA0EFEBC404EEA030C4FEA15481FFA1F
:1001C40085FE220CBCFBF8F908FB19C309FB0EFAE7
:1001D40042EA03439A4528D9EB1809F1FF3004D2C7
:1001E4009A4502D9A9F102002B44A3EB0A03A4B255
:1001F400B3FBF8F208FB123302FB0EFE44EA03449D
:10020400A64514D92C1902F1FF3303D2A64501D90E
:10021400931E2C44A4EB0E0443EA00401EB1FC40A0
:10022400002334607360BDE8F08F4846DDE7134671
:10023400F0E702B9FFDE87BB831A01214FEA154EAE
:10024400AAB2200CB3FBFEFC0EFB1C330CFB02F821
:1002540040EA0343984562D9EB180CF1FF3004D20D
:10026400984502D9ACF102002B44A3EB0803A4B2D5
:10027400B3FBFEFC0EFB1C330CFB02F244EA03440A
:10028400A2424ED92C190CF1FF3304D2A24202D956
:10029400ACF102032C44A41ABEE7C7F1200CBD4004
:1002A40000FA07F320FA0CF84FEA154E24FA0CFC76
:1002B400BC404CEA0302ABB2B8FBFEFC110C0EFBD3
:1002C4001C800CFB03F941EA0040814523D928181E
:1002D4000CF1FF3104D2814502D9ACF1020128446A
:1002E400A0EB090092B2B0FBFEFC0EFB1C000CFB61
:1002F40003F842EA004398450FD9EB180CF1FF329A
:1003040004D2984502D9ACF102022B44A3EB0803B2
:1003140042EA014192E76146E2E76246F6E7604657
:10032400A3E76346B7E7834205D90EB1C6E9007077
:100334000021084677E7B3FA83F181B9834201D3F8
:10034400BA420AD8BC1A60EB030301209C46002E73
:1003540067D0C6E9004C002165E70846F7E7C1F11C
:10036400200C8B4002FA01F522FA0CF420FA0CFB63
:1003740027FA0CF28F401C4300FA01F34FEA1449A8
:1003840013431FFA84FE1A0CBBFBF9F809FB18BBD4
:1003940008FB0EFA42EA0B4292453ED9A21808F134
:1003A400FF3004D2924502D9A8F102002244A2EB04
:1003B4000A029BB2B2FBF9F809FB182208FB0EFEF5
:1003C40043EA024296452AD9A21808F1FF3304D21F
:1003D400964502D9A8F10203224443EA0040A2EB65
:1003E4000E02A0FB05939A42CE46984602D306D14C
:1003F4004F4504D20138B9EB050E63EB040886B10E
:10040400B7EB0E0362EB080707FA0CFCCB40CF40B6
:100414004CEA0303C6E900379DE74046C7E7434675
:10042400DBE73146FFE6000080B50F4AD2F83C32E4
:1004340003F0E04343F00303C2F83C320A4E4FF4A6
:100444000047F7604FF4004400252046294604F095
:1004540043F90649064804F0C7FCB760204629461C
:1004640004F03AF9EAE700BF00288450F866000077
:100474000467000008B5024B1B68984708BD00BF1D
:1004840000000020014B1860704700BF00000020EE
:1004940000B583B002460B4600210091024800F0EB
:1004A4003BFA03B05DF804FB790400002DE9F04346
:1004B40083B0044608461546238B13F0080F05D174
:1004C40003F0070600230093019369E0012909D092
:1004D40043F02003238385F31188BFF36F8F03B0A8
:1004E400BDE8F08343F010032383F4E7204604F0CF
:1004F400B0FC57E0D4F814904A466946204604F00C
:10050400C1FC00275AE023691F680621204604F035
:1005140079FC4FF0000951E023695F68042120460B
:1005240004F070FC4FF0000948E023699F6805213E
:10053400204604F067FC4FF000093FE0002246E04B
:10054400002244E043F00803238385F31188BFF3BA
:100554006F8F002944D1009B2BB14B46424669461C
:10056400204604F006FD17B125492046B8474FF050
:100574002003EFF3118583F31288BFF36F8F238B6E
:1005840023F008032383238B13F0100F2ED023F0C2
:10059400100323830120268B06F0070600289AD037
:1005A4000228A3D0002896D00128A3D00328AAD0DB
:1005B4000428B1D00528B8D00027B946238B03F00E
:1005C4000708B045BAD0A268002AB9D00122114662
:1005D400002AB7D1009A002AB4D1002FB2D1D2E7B1
:1005E4004A464146204604F015FCB4E713F0200FB8
:1005F40004D023F0200323830220CCE70020CAE7A1
:10060400A54F000070B582B0044600230360436028
:1006140083604B78252B02D04E1C01251FE0881CDB
:10062400E37045E1237843F004032370B5B1013648
:1006340014E0237843F008032370F7E7237843F0AA
:1006440010032370F2E7237843F020032370EDE7CF
:10065400237843F040032370E8E7002545B333785B
:10066400203B102BF9D801A252F823F041060000D8
:100674005F0600005F0600004B0600005F060000F6
:100684005F0600005F0600005F0600005F060000D2
:100694005F0600005F060000370600005F060000EA
:1006A400290600005F0600005F06000055060000F2
:1006B400237803F04403442B5FD00196237843F05E
:1006C4008003237033782A2B5CD001A804F0F9FC52
:1006D400019B9E420FD0237843F080032370606017
:1006E400DBB2C3F34003002854DB00221343227817
:1006F40063F341022270019B01931B782E2B14BFDC
:1007040000230123627863F341026270002B43D01B
:10071400019B5A1C01925B782A2B3FD001A804F05C
:10072400D0FCA0602378C3F3400300283EDB002202
:100734001343227863F341022270019803784C3BFF
:100744002E2B00F29D80DFE803F0909B9B9B9B9BEC
:100754009B9B9B9B9B9B9B9B9B9B9B9B9B9B9B9BE5
:100764009B9B9B9B9B9B339B579B459B9B9B9B9BD7
:100774009B9B899B9B9B9B9B820023786FF3861397
:1007840023709AE7637843F00103637033460133BF
:100794000193B1E70122A9E70198CFE7637843F019
:1007A40004036370104601300190C7E70122BFE7DC
:1007B400421C4378682B06D06378022161F3C60398
:1007C400637010461EE06378012262F3C60363700F
:1007D400023017E0421C43786C2B06D06378032167
:1007E40061F3C603637010460CE06378042262F37D
:1007F400C6036370023005E06378052262F3C60322
:100804006370013010F8013BE370A3F14102372A11
:100814007DD8DFE802F05E7C7C7C5E5E5E7C7C7C66
:100824007C7C7C7C7C7C7C7C7C7C7C7C7C4F7C7C31
:100834007C7C7C7C7C7C5E7C4F3A5E5E5E7C3A7C1D
:100844007C7C7C654F717C7C717C4F7C7C4F6378B5
:10085400062262F3C60363700130D3E7637807228C
:1008640062F3C60363700130CCE76378082262F355
:10087400C60363700130237843F002032370C1E799
:1008840063786FF3C6036370BCE7A278012161F358
:100894000202A270627802F07802402A10D0632B20
:1008A40013D02378C3F34002154365F34103237047
:1008B40002B070BDA278022161F30202A270E9E7DE
:1008C400217841F001012170E9E7151E18BF0125C7
:1008D400E7E7A378042262F30203A3700125E0E7AB
:1008E400A378032262F30203A370637803F078030E
:1008F400402BD6D10125D4E7A378032262F3020367
:10090400A370637813F0780FCBD00125C9E723785F
:1009140043F001032370C4E72DE9F04F91B006467C
:100924000D4691460393002499F80000002800F036
:10093400D582252808D009F101092946B0470028A5
:10094400C0F2CD820134EFE70023049305930693AC
:10095400079308930993494606A8FFF753FE0290AC
:100964009DF8193013F0010F00F09780039B1A1DB6
:1009740003921F68002FC0F288809DF8193013F08D
:10098400040F00F09C80039B1A1D0392D3F800A06F
:10099400BAF1000FC0F28A800023079308939DF8F0
:1009A4001A3003F007039DF81910C1F3C301012B9A
:1009B40000F08E80022B00F0D380042B00F0248101
:1009C400032B00F03B819DF8188018F0030B40F0D6
:1009D4003B819DF81B30253B532B00F2E681DFE879
:1009E40013F04001E401E401E401E401E401E40161
:1009F400E401E401E401E401E401E401E401E401CB
:100A0400E401E401E401E401E401E401E401E401BA
:100A1400E401E401E401E401E401E401E401E401AA
:100A2400E401E401E401E401E401E401E401E4019A
:100A3400E401E401E401E401E401E401E401E4018A
:100A4400E401E401E401E4018101E401E401E401DD
:100A5400E401E401E401E401E401E401E4015E01F0
:100A64006701E401E401E401E4016701E401E40154
:100A7400E401E401BE018101A201E401E4014D01AC
:100A8400E4018101E401E40181019DF8183043F09F
:100A940004038DF818307F426FE79DF91830002B5E
:100AA40002DB4FF0FF3768E7079F66E79DF81930D0
:100AB4006FF341038DF819304FF0FF3A6CE713F0F0
:100AC400020F02D0DDF820A066E74FF0FF3A63E79B
:100AD400CB1E042B04D8DFE803F00B1D29353500A9
:100AE400039B1A1D03921B68DA170493059206E010
:100AF400039B1A1D03921B68DA17049305920129BC
:100B040028D002297FF45FAFBDF91030DA170493BF
:100B1400059258E7039B073323F0070303F1080208
:100B24000392D3E90023CDE90423E8E7039B0733C9
:100B340023F0070303F108020392D3E90023CDE96C
:100B44000423DCE7039B1A1D03921B68DA17049342
:100B54000592D4E79DF91030DA170493059232E731
:100B6400CB1E042B04D8DFE803F00B1F35414100F2
:100B7400039B1A1D03921B680493002305931EE034
:100B84009DF81B30632B07D0039B1A1D03921B682F
:100B940004930023059312E0039B1A1D03921B6820
:100BA4000493002305930AE0039B073323F0070310
:100BB40003F108020392D3E90023CDE904230129B8
:100BC4001CD002297FF4FFAEBDF81030049300233B
:100BD4000593F8E6039B073323F0070303F10802A8
:100BE4000392D3E90023CDE90423E8E7039B1A1D0C
:100BF40003921B68049300230593E0E79DF81030EB
:100C0400049300230593DEE608290BD0039B0733E6
:100C140023F0070303F108020392D3E90023CDE98B
:100C24000423D0E6039B073323F0070303F10802F0
:100C34000392D3E90023CDE90423C4E6039B1A1DE0
:100C440003921B680493BEE6029F3B464A4629462C
:100C5400304604F0B2FA0028C0F241810444B94697
:100C640062E629462520B0470028C0F238810134C5
:100C7400D8460DF13E0A4FF000099BE0DDF81090D4
:100C8400BAF1000F07DB5146484604F085FB09EB37
:100C9400000AD8468EE0484604F075FBF7E7049B4B
:100CA4008DF82830D8460DF1290A0DF1280981E084
:100CB40018F0080F05D118F0100804D04FF02008E0
:100CC40001E04FF02B08049A059B002B02DB0492F1
:100CD400059308E0524263EB4303049205934FF0FB
:100CE4002D0800E0D8460DF13E0300930AAB06AA96
:100CF400DDE9040104F0F7F98146BAF1000FC0F20E
:100D040088800DF13E03A3EB09039DF818206FF3CF
:100D140086128DF818209A457ED9AAEB030307930F
:100D24000DF13E0A46E0049828B9D846DFF8B4A18C
:100D3400AAF105093EE00DF13E0300930AAB06AAB1
:100D4400002104F0D0F981469DF81A3043F01003D5
:100D54008DF81A3078238DF81B30D846CDE7049AE5
:100D64009DF81930C3F3C303072B06D8DFE803F05B
:100D7400040B0D0F1115191B1460D8460DF13E0A12
:100D84004FF0000916E01470F7E71480F5E71460DB
:100D9400F3E7E31714605360EFE7E317146053605D
:100DA400EBE71460E9E71460E7E7D8460DF13E0A83
:100DB4004FF00009B9F1000F00F08D80AAEB090390
:100DC400B8F1000F00D001339DF81A2012F0100F73
:100DD40025D0023307990B4412F0400F01D0089A32
:100DE4001344002F31DDFF1A9DF8183013F0040F5F
:100DF4002BD113F0400F17D0B8F1000F17D02946AC
:100E04004046B04700286ADB0134D8464FF0300B27
:100E14000FE00DF13E0ACDE70DF13E0ACAE712F0EC
:100E2400080FD7D00133D5E74FF0200B01E04FF086
:100E3400300B3B465F1E002B07DD29465846B04762
:100E440000284CDB01343B46F4E7B8F1000F05D031
:100E540029464046B047002841DB01349DF81A304A
:100E6400C3F30012C3F3C003134305D02946302053
:100E7400B047002833DB01349DF81A3013F0100F0B
:100E840006D029469DF81B00B047002827DB013413
:100E9400079B03F1FF38002B07DD29463020B047BC
:100EA40000281CDB01344346F3E753464A462946EF
:100EB400304604F082F9002811DB0444002F07DDDA
:100EC40029462020B047002809DB0134013FF5E71B
:100ED400DDF8089028E5DDF8089025E5204611B0F6
:100EE400BDE8F08F1D67000008B54FF02002EFF356
:100EF400118382F31288BFF36F8F00F037FD03482C
:100F040003F072FF00F0A2FAFCE700BF20670000C4
:100F14004FF02003EFF3118083F31288BFF36F8F38
:100F24000121114BC3F800154FF47F03D3F8203C83
:100F340003F01F02C3F344133832083B1B0103EBD5
:100F4400C20320339B0943F48073084AC2F8C435B2
:100F5400C2F80417C2F80419C2F8001B80F3118800
:100F6400BFF36F8F00207047001000500040005006
:100F740070B108B50246074B1B680748A0FB031372
:100F84009B0C03FB02F0054B43F00103984708BD9B
:100F9400704700BF4800002083DE1B43F06600005A
:100FA400062800D07047044B0122C3F80025BFF384
:100FB4004F8F20BFFDE700BF0040005001F07CBD13
:100FC40070B5284B1D7D05F01F0301229A40690965
:100FD400254B03EB8103D043D3E8EF1F01EA000460
:100FE400C3E8E64F002EF7D10A4200D170BD1F4876
:100FF40005EB45029300C1181D4A72B14978C05CE3
:1010040004F0F6F84FF02003EFF3118683F312880F
:10101400BFF36F8F174B1C6810E0002383F3118814
:10102400BFF36F8FEEE70F4B1B7D03EB4303990078
:101034000E4B585C90470CB1246824B11CB1A268D3
:10104400002AF0D1F7E786F31188BFF36F8F0748C2
:1010540005EB4505AA008118002383504B608B6083
:10106400C4E700BF5C0900204003002034030020D3
:10107400F551000020030020F8B504464B4B1D7DBC
:101084004FF02003EFF3118683F31288BFF36F8FC1
:1010940005EB4502464B13F822304BB3454B03EBAB
:1010A400820C434F4FEA820E07EB820393E807005A
:1010B4008CE80700002307F80E3086F31188BFF38D
:1010C4006F8F05EB45033B4A12F82330002B6AD09F
:1010D400B4F1FF3F1BD102F0CBFF4FF02003EFF33D
:1010E400118683F31288BFF36F8F334B1C682EE095
:1010F4000146284600F06AF80028DED005EB4503D7
:101104002C4A02EB830307C883E80700D5E705EB05
:10111400450302EB83039868410CC003274BC018B6
:10112400274A4FF0000341F10001FFF711F80121B4
:10113400201A05F0FFF8CEE71C4B1B7D03EB43039D
:101144001C4911F8230090470CB1246824B11CB148
:101154006268002AF0D1F7E786F31188BFF36F8F36
:1011640005F01F03012199406B09164A02EB830322
:10117400D3E8EF2F0A43C3E8E02F0028F8D1124B3D
:101184005BB10C4A05EB450302EB830305EB450514
:10119400597812F82500FFF703FFFFF711FF03F05A
:1011A40089F90120F8BD0020FCE700BF5C0900209C
:1011B4002803002034030020200300203F420F00B6
:1011C40040420F0040030020A50F00002DE9F0412C
:1011D40082B00E4601A900F045F8441E24B207E08F
:1011E400B6F1FF3F33D04044B04230D9013C24B281
:1011F400002C2BDB019B04EB440203EB8205697892
:1012040013F8220003F0FAFF0028EFD16868410CBC
:10121400C003114FC019114A4FF0000341F10001FE
:10122400FEF796FF8046AB68590CDB03D8190B4ACE
:101234004FF0000341F10001FEF78AFF084B1B68E1
:10124400B3F1FF3FCCD08342CAD8CFE7002528466C
:1012540002B0BDE8F08100BF3F420F0040420F00E2
:101264000400002008B9024B0B600020704700BF47
:101274004C67000008B5024803F066FC08BD00BFD7
:101284004C67000008B308B54368042B07D0082B4B
:1012940012D0FBB1006802F0E7FD002014E00368FF
:1012A4000022D3E8EF1F012903D1C3E8E02F00286F
:1012B400F7D10DD1104607E003681B7803F580735E
:1012C4000020054A42F8230008BD6FF4E04070474F
:1012D4000248F9E70248F7E700000350E98FFFFFEF
:1012E400EA8FFFFF70B308B54368042B04D0082BC2
:1012F4000FD0C3B915480BE003680122D3E8EF1FF0
:10130400002903D1C3E8E02F0028F7D116D100202B
:1013140008BD03681B7803F580730D4A52F8233027
:1013240073B90020F4E700684FF0FF324FF0FF3349
:1013340002F010FD0028EBD00648E9E70548E7E78E
:101344000448E5E76FF4E040704700BFEA8FFFFF11
:1013540000000350E98FFFFF10B5044688B16368AD
:10136400042B0DD0082B0BD053B113F0020F0DD06A
:101374002146094804F021FE002323600023636012
:1013840010BD064B5B6806489847E8E71422002125
:10139400206804F03AF8F1E744030020D400002068
:1013A4005467000010B5044678B16368042B0BD071
:1013B400082B09D00BB9236863B1206804F066FEDA
:1013C400636843F00103636010BD0F4B5B680F4813
:1013D4009847EAE74FF0FF324FF0FF3321460C48BD
:1013E40002F08AFB08B923681BB9074B5B680948FC
:1013F400984714220021206804F007F8636843F03A
:1014040002036360D9E700BFD400002054670000E2
:10141400440300207C67000008B5402314220449DB
:10142400044804F0BCFD0449044803F0EFFB08BD84
:101434006003002044030020BC670000AC67000088
:10144400014910220A60704710ED00E072B6404076
:1014540080F31188BFF36F8FBFF34F8F30BF62B635
:10146400BFF36F8F704700BF72B6494081F3118894
:1014740020BF80F3118862B6704700BF40B20028D5
:1014840007DB00F01F02400901239340014A42F8A0
:101494002030704700E100E04209054B53F8222058
:1014A40000F01F00012303FA00F01040704700BF52
:1014B40000E100E0013140B2002808DB4901C9B273
:1014C40000F1604000F5614080F80013704700F0BF
:1014D4000F004901C9B2014B1954704714ED00E0E3
:1014E40030BFFFF7FDBF00BF08B50B4B0B4A22F01E
:1014F4007F029A60BFF34F8FBFF36F8FD3F88820BA
:1015040022F47002C3F8882002F044FA03F04EF982
:1015140000F0DEF902F09AFA00ED00E000000000AD
:101524000A4A9368C3F8A80009490968C3F8AC10CB
:1015340008494B6843F080534B60002383F31188C0
:10154400BFF36F8F9368D3F8AC0070475C09002039
:101554002C69000000ED00E014498A684FF0300067
:101564001044EFF3098C80E8F01F202080F31288E8
:10157400BFF36F8F0E4F4FF00066CA698A603E60FA
:10158400D2F8A8000023C2F8A83080F3118802F131
:10159400300090E8F01F8CF3098802F1000004B5D4
:1015A40003F048FEBDE80440704700005C090020D9
:1015B40004ED00E01EF0040F0CBFEFF30880EFF31E
:1015C4000980816911F8021C0229FFD001B503F0DA
:1015D4001FFE01BD10B4A2F120040E4942F8081CFC
:1015E40021F0010142F8081C42F8203C019B42F81A
:1015F4001C3C029B42F8183C039B42F8143C4FF0FD
:10160400807342F8043C04650023C0F8A83010BC81
:10161400704700BFB3500000094B9860D0F8983071
:1016240083F30B88104681F30988002163B681F3A4
:101634001188BFF36F8F0022002303F038FD00BF31
:101644005C09002001B572B60B4A906900281EBFE0
:101654000021916104F0FEFC62B6EFF30580A0F175
:1016640010004FEAC0000549014409C99847BDE884
:1016740001400349084700005C0900205C64000045
:1016840089160000044B9968D869884203D003493D
:101694004FF080520A6070475C09002004ED00E0BE
:1016A40010B51446184B9A6A9A6A9B6A13F0020F93
:1016B4000BD0154B5A6B9B6A13F0800F05D021B1E8
:1016C400114A936A23F0800393620F4B9A6A9A6AD1
:1016D4009B6A13F0100F01D10B4B9B6A0A4B9B6A58
:1016E40013F0200F04D0084A536A23F400535362C2
:1016F400054A936A43F0FF039362012103F09FFDBF
:101704002070002010BD00BF00ED00E010B51446AD
:10171400124B9A6A9A6A9B6A13F4007F0BD00F4BA0
:101724009A6B9B6A13F4004F05D021B10B4A936A5C
:1017340023F400439362094B9A6A9B6A13F4807FF3
:1017440001D1064B9B6A054A936A43F47F43936233
:10175400012103F074FD2070002010BD00ED00E0B5
:101764000A4B9A6A9A6A986A10F480100BD1074B54
:101774009A6A9A6A9A6A9A6A9A6A6FEA02426FEA5B
:1017840012429A6270470220F1E700BF00ED00E0C8
:1017940008B5844600230B701C4BD86A10F0020075
:1017A40031D1DB6A002B2FDB184BD86A10F0804054
:1017B4002AD0DCF8183033F8022C4DF602739A4222
:1017C40012D0124B9B6A13F0FF0F10D10F4B9B6A80
:1017D40013F47F4F11D10D4B986A000C000498B19B
:1017E4006046FFF7BDFF0FE0DCF800000CE00A469E
:1017F40001216046FFF754FF06E00A4601216046D6
:10180400FFF784FF00E0002008BD00BF00ED00E00A
:1018140070B58AB00C46224B5968C1F30801002305
:1018240083F31188BFF36F8F02F07F43B3F17F4FCF
:1018340015D102F00C03082B14D012F0080F0BD0B2
:1018440000260DF12702204603F0FEFC05469DF814
:10185400273053B10AB070BD04460126F1E70026D3
:101864003446EEE700263446EBE72022214601A861
:1018740003F09CFD4EB1089BC3F308025AB96FEA0A
:1018840053236FEA4323089305E0089B23F4FF7373
:1018940023F00103089301A9284603F0B5FCD9E716
:1018A40000ED00E0044B5A6942F010025A615A6993
:1018B40042F480625A61704700ED00E0EFF3088063
:1018C400EFF3098101B57246FFF7A2FF01BD00BF26
:1018D400002207E003F1604303F56143202183F80C
:1018E40000130132442A09DC53B2002BF2DA02F06D
:1018F4000F01034B0B4420211976F2E7704700BF18
:10190400FCEC00E0002015490870002080F31488E6
:10191400BFF36F8F002080F30A8880F30B88FFF7F2
:101924004DFB00200E490860BFF34F8F0D4880F334
:10193400088800F041F8202080F311880A484FF409
:101944000061401880F30988EFF3148002210843F2
:1019540080F31488BFF36F8FFFF7C6FD730B00206D
:1019640094ED00E0780F0020B8100020BFF34F8FF3
:101974000549CA6802F4E062044B1343CB60BFF329
:101984004F8F00BFFDE700BF00ED00E00400FA0543
:10199400084BD3F89000C0F30720002306E0054A63
:1019A400C2F898300021C2F8A01001338342F6DB5C
:1019B400704700BF00ED00E010B572B6002484F358
:1019C4001388FFF7E5FF234608E003F120010E4AE0
:1019D4004FF0FF3042F821000133DBB20F2BF4D972
:1019E400002308E003F16001074A4FF0FF3042F89A
:1019F40021000133DBB20F2BF4D962B6BFF34F8F52
:101A0400BFF36F8F10BD00BF00E100E008B50A4BC3
:101A14009B68834202D002F091FE08BDEFF3058378
:101A2400002BF8D0054B5A6842F080525A605A6A2B
:101A340022F400425A62EEE75C09002000ED00E067
:101A440010B584B00A4C23460A4A01210A4803F01F
:101A540078FC0023019302930393084B0193E41A47
:101A64000294012101A803F070FC04B010BD00BF72
:101A74000000072000000020D0670000980100202B
:101A8400024B034AC3F8C020704700BF00ED00E0DA
:101A9400AAFF4400034BC3F89800C3F89C10C3F892
:101AA400A020704700ED00E02DE9F04F87B081469B
:101AB400009101931446002738E06FF0150658E0B2
:101AC400D84571D12946F0B203F01CFC2DE05F4BE0
:101AD400C3F89800D3F89C1001F01F0122F01F02F4
:101AE4000A43C3F89C202946E0B203F00BFC0446E9
:101AF40010F1160F00F0A380013416E0013B5349A6
:101B0400C1F89800D1F8A02002F01F0223F01F03AF
:101B14001343C1F8A0302946E0B203F0F3FB0446B6
:101B240010F1160F00F08B8001340137009B9F42A7
:101B340080F2858007EB47054FEA850A09EB8505A6
:101B4400D5F80480B8F1000FEFD0019B23B12846EB
:101B540003F0BBFB00286ED059F80AB0584603F0D6
:101B640096FB064608EB0B00013803F090FB864217
:101B7400A3D116F1160F61D0B44264DD3046334B65
:101B8400C3F89860D3F89C1021F01F01C3F8986043
:101B9400D3F8A03043F01F0859F80A306A681A4491
:101BA40002F1FF3B99428BD0994290D0D845A5D001
:101BB400013B26490646C1F89800D1F8A02002F05E
:101BC4001F0223F01F031343C1F8A0302946E0B2DB
:101BD40003F098FB044610F1160F30D001301B4B74
:101BE400C3F89860D3F89C109DF8102061F30402A8
:101BF4008DF81020D3F8A030C3F34203D2B263F3BC
:101C040047128DF8102059F80A306A681344029379
:101C140023F01F03A8EB0B084344013B23F01F03ED
:101C2400059302A9C0B203F062FB044610F1160F3B
:101C340005D0013479E76FF0150400E034462046FE
:101C440007B0BDE8F08F6FF01504F8E700ED00E091
:101C540010B5034C01232278FFF726FF207010BD36
:101C6400700B00202DE9F84307468846002403E062
:101C74006FF0150517E00134A04543DD04EB440380
:101C84009A0007EB83035E68002EF4D057F80290A5
:101C9400484603F0FCFA054606EB0900013803F058
:101CA400F6FA8542E4D104EB84031A4A42F823503D
:101CB40015F1160F27D0184B1B78AB4226DD04EB29
:101CC4008402144B03EB8202144BC3F89850C3F8FC
:101CD4009850D3F89C50107B65F304001073D3F82C
:101CE400A000C0F34200157B60F347151573D3F8C9
:101CF4009C0020F01F005060D3F8A03023F01F0395
:101D04001361B8E700252846BDE8F8836FF0150590
:101D1400F9E700BF60080020700B002000ED00E030
:101D2400044B0522C3F89420BFF34F8FBFF36F8F8A
:101D3400704700BF00ED00E0BFF35F8F024B00224D
:101D4400C3F89420704700BF00ED00E038B50E4B97
:101D54001D68082D15D8FFF7EFFFFFF791FE00244B
:101D640007E0094B596801EB0411204603F099FA86
:101D74000134A542F5D8054B1D70FFF7D1FF0020B3
:101D840038BD4FF0FF30FBE7EC670000700B00201C
:101D9400014B1860704700BF2800002000487047BE
:101DA400FC080020034BC01A8010034B03FB00F017
:101DB400704700BF84080020B76DDBB638B5054610
:101DC4000C46FFF7EFFF01464022034803F0B3FB44
:101DD40001462846A04738BDFC63000030B583B0F7
:101DE40005460C46FFF7DEFF0146402300932346D9
:101DF400054A064803F0B9FB011E01DB03B030BD00
:101E04002846A047FAE700BFB7550000FC6300006E
:101E140008B5052815D8DFE800F0031A14141510C6
:101E240000210D4803F012FB836813F0070F08D15B
:101E34000021094803F06DFB03E00221064803F08A
:101E440068FB08BD0321044803F063FBF9E70121A3
:101E5400014803F05EFBF4E7FC63000010B54FF0AB
:101E64002003EFF3118483F31288BFF36F8F134AB7
:101E7400136843F00203136013F0010F08D1002329
:101E840084F31188BFF36F8F9BB903F09AFB10BDE5
:101E94004FF05023D3F80C24D3F80C3412F0010F74
:101EA40001D10023ECE7FFF779FF03F01FFB0123C7
:101EB400E6E70021024803F02CFBE8E724090020B0
:101EC400FC63000008B5084BD3E8EF2F22F00201B1
:101ED400C3E8E01F0028F7D112F0010F00D008BDBD
:101EE40003F083FBFBE700BF2409002000B585B0A5
:101EF400CDF800D0CDF804D000230293012303933E
:101F04006B46074A03F04DFB002805DB4FF4804283
:101F14000023684602F00AF805B05DF804FB00BF30
:101F24001756000070B50646002201210520FFF770
:101F3400C1FA114800F058FF104B984219D103F030
:101F44003DFF0024032C12D82146304603F07EFACC
:101F540005462146304603F084FA094903F02EF879
:101F6400002805DB0123AB601C44E4B2EAE700204F
:101F740070BD6FF00400FBE7151E00000000AD0B00
:101F84005C68000070B5054604F04FF820B9224B98
:101F94001B789BB1002300E001231C4683B14FF062
:101FA4002003EFF3118683F31288BFF36F8F6CB9AC
:101FB4004FF050230222C3F8082307E00123ECE783
:101FC4000026F4E7D4B13046FFF74EFA4FF0502222
:101FD400D2F8183403F00303D2F8182412F4803F23
:101FE40011D10022002AEDD0012B01D0012DE9D11D
:101FF4005CB186F31188BFF36F8F70BD212000217F
:1020040002F06AFBE2E70122ECE74FF050230222E0
:10201400C3F80423F1E700BF730B002010B5044696
:102024000E4B0121D3E8EF2FC3E8E01F0028F9D1BC
:102034001AB1631E012B0DD910BD094803F011FA22
:10204400084900234B608B60CB6001238B6002F056
:10205400D2FFEEE72046FFF795FFEDE728090020C1
:10206400FC6300007408002010B504460A2807D059
:10207400074B1868E1B283685B689847204610BD37
:10208400034B186883685B680D219847F0E700BF2D
:102094002C09002010B5044C2046FFF779FE204699
:1020A400FEF7F0F910BD00BF6D20000008B506482A
:1020B400064B186003F02DFF18B1FFF7EBFF00206B
:1020C40008BD6FF01200FBE7446400002C090020F7
:1020D40028B1012801D10348704700207047024805
:1020E400704700BF146400002C640000F0B585B094
:1020F4000E46194643681B7B06F01F0545EA431547
:10210400B2F5001F22D00746144600230193029320
:10211400104603F0F6FA8DF804007B689968F140E4
:1021240011F0010F02D1B4F1A07F14D0002301AA51
:102134001946284601F0DAF81A4B98422FD10121AA
:10214400284601F0B5FA002005B0F0BD284601F09C
:1021540011FB0020F8E705F01F036A09012A12D0D9
:10216400114A803352F8233013F0010FDED10DF100
:102174000F01284601F040FA0C4B984205D00DF1AE
:102184000F030293D2E70A4AEBE70DF10F0001F0C7
:1021940087FA044B9842F2D06FF00B00D4E76FF04B
:1021A4001500D1E70000AD0B002584500400AD0BF1
:1021B400002884502DE9F04186B00E461446D0F82C
:1021C400048098F80C3001F01F0545EA43150DF121
:1021D4001701284601F010FA074614F4403F3AD09C
:1021E4000021039104910B4603AA284601F07EF8CE
:1021F400334B984261D19F423DD014F4003F49D003
:102204000DF10301204603F009FA074650BB9DF87F
:1022140003308DF8043014F4803F0CBF01230023F5
:102224008DF80530204603F03CFA8DF8060014F4CE
:10223400002F25D0D8F80430012101FA06F69E605B
:10224400002201A9284601F00BF91D4B984209D040
:102254006FF0150706E0284601F0BCFA184B9F42C0
:1022640004D00027384606B0BDE8F0819DF8170079
:1022740001F00EFAF5E79DF8170001F009FABCE742
:1022840014F4802FDCD0D8F80420012303FA06F6D6
:10229400D660D5E7204603F004FA8DF80800002341
:1022A4001A4602A9284601F021F8054B984201D1AB
:1022B4000027D7E76FF01507D4E76FF01507D1E7CC
:1022C4000000AD0B08B501F0D9F908B1002008BD34
:1022D40001F0AAF9084B98420AD10021074801F0FD
:1022E40085F9002205210D20FFF7E4F80020EEE730
:1022F4006FF00400EBE700BF0000AD0BA557000032
:1023040043681A68B1F5164F6FD03AD8B1F5165F25
:102314006ED00AD9B1F5E14F75D024D947F612230E
:1023240099422BD14FF4000313E0B1F5966F61D0BD
:1023340007D9B1F5166F63D0B1F5965F10D13C4B58
:1023440007E0B1F5967F58D0B1F5167F05D14FF46B
:102354001C33C2F82435002070476FF01500704715
:102364006FF015007047B1F5615F4ED0B1F5964F2F
:1023740001D1304BEDE76FF0150070476FF0150099
:102384007047B1F5613F42D009D9B1F5612F46D00C
:102394001FD9294B994248D14FF08053D9E7B1F561
:1023A400963F37D005D9B1F5E13F0FD14FF0EB732C
:1023B400CFE74DF6C02399422ED0B1F5614F02D13B
:1023C4004FF46B03C5E76FF0150070476FF015000D
:1023D40070471A4B994225D0B1F5E12F02D14FF045
:1023E400E863B6E76FF0150070474FF41D03B0E7DC
:1023F400134BAEE74FF49E23ABE74FF4A033A8E7AB
:102404004FF41D23A5E70F4BA3E70F4BA1E74FF0B4
:102414006C739EE70D4B9CE74FF4650399E74FF00F
:10242400706396E74FF0806393E76FF01500704791
:1024340000B0130000A04E0040420F0090D00300F3
:102444000050270000C0750000F03A0000903A01E7
:102454002DE9F04105460F46D0F8108003F0E5FD64
:1024640020B9174B1B7843B1002300E0012353B973
:10247400284603F0BCFA064613E00123F7E784F389
:102484001188BFF36F8F4FF02003EFF3118483F3B0
:102494001288BFF36F8F2646284603F059FA0028A6
:1024A400EDD0D8F810301F700122D8F8101028464B
:1024B40003F068FA86F31188BFF36F8FBDE8F081EB
:1024C400730B002038B505460C4601F1180000F0E6
:1024D400EFFC0A4B98420ED1237E43F00043C5F82B
:1024E400A031C5F88C30227E01239340044AC2F8FF
:1024F4000435002038BD6FF00400FBE70000AD0B8D
:102504000070015021F07F4100F5A870014B43F8A1
:10251400201070470050015000F5A870014B53F88B
:1025240020007047005001504FF480338340024A2A
:10253400C2F84433704700BF005001504FF4803359
:102544008340024AC2F84833704700BF005001502C
:10255400014BD3F8040570470050015010B5012316
:1025640083406FEA030C0D4AD2E8EF1F01EA0C0E18
:10257400C2E8E4EF002CF7D14FF4803202FA00F005
:1025840002F15022C2F80803BFF35F8FBFF36F8FCD
:102594000B4214BF0120002010BD00BF4C090020D5
:1025A40070B5044603F0CEFA05464FF48033A340D9
:1025B400154AD2F80423134205D10026284603F015
:1025C400CAFA304670BD0123A340DB430F4AD2E868
:1025D400EF1F01EA0300C2E8E60F002EF7D159B954
:1025E40004F150039B009BB203F1502303F58033A5
:1025F4001B6813B1012300E001231E46002BDDD02C
:10260400204603F090FAD9E7005001504809002011
:1026140001B97047012383400E4AD2E8EF1F1943E2
:10262400C2E8EC1FBCF1000FF7D14FF480338340B4
:10263400094AC2F80433094BD3E8AF3F23FA00F048
:1026440010F0010FE5D0064B4FF40012C3F800213F
:10265400DFE700BF4C09002000500150480900206A
:1026640000E100E02DE9F843074614461E461046F3
:10267400194603F064FA0546154B1A68A01A1C6043
:102684005E60A5F50013B3F5400F09D3002402F0F2
:102694007BF93846FFF740FFA8420ED0BDE8F88327
:1026A4000C4B1B681A0A1B0615EB030842F10009C0
:1026B400094BC3E900890124E9E71CB13846FFF757
:1026C40033FFEBE74FF400013846FFF71BFFF5E754
:1026D400B0010020500900209801002038B50D4BAE
:1026E4001C68250A2406BFF35F8FFFF731FF0346FA
:1026F400001945F10001B3F5801F0AD2064BD3E956
:102704000023904271EB030303D210F1807041F176
:10271400000138BD5009002098010020F8B5064694
:1027240014461D461046194603F009FA0746FFF7FA
:10273400D5FFA04271EB05031DD2231A65EB0101FD
:10274400194A934271F100032BD2184B03EB061381
:10275400D3E90223AB4208BFA24216D03946304621
:1027640003F0FEF9394603F0DAF9001945F10003E4
:1027740004461D4609E00123B3400D4AD2E8EF1F89
:102784001943C2E8E01F0028F8D1084B320103EBDB
:102794000616C6E9024506999950079B7360002006
:1027A400F8BD6FF01500FBE701000001A001002057
:1027B4004809002030B583B000231D4AC2F808350B
:1027C400002B24DD1A4C0225C4F80453194B4FF492
:1027D4000012C3F88021002201211520FEF76AFEB1
:1027E4001520FEF74BFE0123A3602360124A1360F9
:1027F40000240194114B0093114A0023204603F056
:10280400EAF92846FFF70AFC204603B030BD0D4A1A
:1028140002EB03124FF0FF304FF0FF31C2E9020127
:102824004FF480329A400249C1F804230133C7E7C8
:102834000050015000E100E04C090020692600002E
:10284400FFFF7F00A00100202DE9F04782B004467D
:10285400FFF7A6FE10B902B0BDE8F087FFF73EFF10
:1028640082460E4603F06EF90546134B03EB041340
:10287400D3E90289C24576EB09030BD20026284628
:1028840003F069F9002EE6D0009742464B462046F5
:10289400B047E0E7084A230102EB0411D6584F6819
:1028A4000020D0504FF0FF324FF0FF33C1E9022334
:1028B4002046FFF743FEE2E7A001002010B50E4BCF
:1028C400D3F8043313F0020F0DD00B4BD3F80431BB
:1028D4004BB1094B0022C3F80421D3F80431074A51
:1028E4001368013313600024002C00DD10BD204662
:1028F400FFF7AAFF0134F7E7005001505009002008
:1029040010B582B0B0F1FF3F06D0012806DDB0F566
:10291400000F05DA441E04E00F48F8E7002400E045
:102924000D4CFFF7DBFE0D4B19685B68401AB0F5E0
:10293400000F00D300242044421CB2F5000F00D342
:10294400054A00208A1801900549009143F10003CB
:1029540003F041F902B010BDFFFF7F00B001002079
:102964006926000008B5FFF7B9FE024B1B68C01AC0
:1029740008BD00BFB001002010B510F4805F01D085
:1029840001220021C0F3811E00F01F0C10F0200F63
:1029940010D1094C0CF1800C54F82C0000F0E040EC
:1029A40041EA420141EA8E0141EA0321014344F82C
:1029B4002C1010BD014CEDE70025845000288450F4
:1029C4002DE9F04106460F469046002415E005F037
:1029D4003F05C8F80C5556F8241001F01F0211F0F9
:1029E400200F1FD12A4D012101FA02F2AA600A46E2
:1029F4003058FFF7C1FF0134E4B2BC4241D2A00019
:102A040056F82450C5F303232A0C032A3CD801A109
:102A140051F822F0D32900002D2A0000432A000097
:102A2400712A00001B4DDEE705F03F05C8F8145578
:102A34000022114656F82400FFF79EFFDBE705F05D
:102A44003F05C8F8085556F8241001F01F0211F08C
:102A5400200F09D10E4D012101FA02F2AA600A46A3
:102A64003058FFF789FFC6E70A4DF4E705F03F0544
:102A7400C8F810550022114656F82400FFF77CFFD1
:102A8400B9E70020BDE8F0816FF08500FAE700BFE8
:102A940000258450002884504FF05023D3F8582543
:102AA40002F00302024BD340024A1360704700BF96
:102AB4000020A1074800002008B503F045F968B1DB
:102AC4004E4BD3F8203A4BB94C4B0D22C3F8202A75
:102AD4000122C3F81C290022C3F81C2900220BE0A0
:102AE40002F160034FF47F0151F83310DB0003F56A
:102AF4007F035B680B6001321F2A08D802F1600370
:102B04004FF47F0151F83330B3F1FF3FE8D103F0C4
:102B1400F3F830B1394B2922C3F80C270322C3F848
:102B24003C2703F09DF840B1354B364AC3F83025B5
:102B34004FF050230122C3F8582503F0A5F818B12B
:102B4400314B0022C3F84C2503F0B6F868B14FF0BE
:102B54005023D3F8003413F0010F06D04FF0502364
:102B64000022C3F81421C3F8182103F0B9F860B1A6
:102B74004FF05023D3F8003413F0010F05D04FF079
:102B840050236FF00102C3F8002403F0C9F818B110
:102B94001A4B6522C3F80C2703F0EAF820B11A4B4C
:102BA400D3F82034002B11DB184AD2F88C3043F4CC
:102BB4004063C2F88C30164A1168164BC3F84415AA
:102BC400D269C3F84C25FFF767FF08BD4FF05023C7
:102BD4000322C3F8182501229A604FF05023D3F83A
:102BE4000431002BF9D04FF050230022C3F8042104
:102BF4000122DA60C3F81825D6E700BF0040005070
:102C0400009003504400EFBE0020035000ED00E0AC
:102C14000080FF000060005010B50468B4FA84F32B
:102C2400C3F11F035FFA83FC002B12DB012202FABB
:102C340003F324EA0303D0E8EF2FA24204D1C0E84F
:102C4400EE3FBEF1000FF6D1E7D181F800C0024893
:102C540010BD0248FCE700BF0000AD0B0200AD0B45
:102C64000368CB4013F0010F11D100B502680123B2
:102C74008B401343D0E8EFCF944504D1C0E8EE3F36
:102C8400BEF1000FF6D1F1D102485DF804FB024811
:102C9400704700BF0000AD0B0400AD0B70B582B0EF
:102CA4000546032800F29E80DFE800F00217233176
:102CB4004FF050230222C3F808230022C3F8042152
:102CC400D3F804210122DA6001238DF807309D42F4
:102CD4002BD0002642F210746EE04FF050230122F4
:102CE400C3F808230021C3F80011D3F800115A6077
:102CF400EAE74FF050234FF40072C3F80823002290
:102D0400C3F82421D3F8242101225A62DCE74FF0CE
:102D140050234FF48072C3F808230022C3F8202103
:102D2400D3F820210122DA61CEE70DF10706D1E7BD
:102D340036B14FF05023D3F8183403F00303337043
:102D44004FF05023D3F8183413F4803F44D10023B8
:102D540027E036B14FF05023D3F80C3403F00103CD
:102D640033704FF05023D3F80C3413F4803F35D133
:102D7400002316E036B14FF05023D3F85C3403F04F
:102D8400010333704FF05023D3F85C3413F4803FC5
:102D940026D1002305E04FF05023D3F85434C3F375
:102DA4000043FBB11EB19DF80730012B1AD101205D
:102DB40002F0EDFF013C15D0032D0BD801A353F80D
:102DC40025F000BF352D0000572D0000792D00009F
:102DD4009B2D00000023E4E70123E2E70123E0E761
:102DE4000123DEE702B070BD054B1B792BB9044B00
:102DF400186001221A71034870470348704700BFE6
:102E0400540900200000AD0B0C00AD0B08B54FF0C9
:102E14005023D3F8003163B14FF050230020C3F89E
:102E24000001D3F800210122C3F808231F4B1B68BB
:102E340098474FF05023D3F804316BB14FF050232F
:102E44000022C3F80421D3F804210222C3F8082382
:102E5400164B1B68012098474FF05023D3F82031BC
:102E640073B14FF050230022C3F82021D3F820215E
:102E74004FF48072C3F808230C4B1B680420984756
:102E84004FF05023D3F8243173B14FF05023002274
:102E9400C3F82421D3F824214FF40072C3F8082383
:102EA400024B1B680520984708BD00BF5409002049
:102EB40008B501460148FFF7AFFE08BD4C000020ED
:102EC4000830034B33F8100000F00100704700BFD6
:102ED400500000200830034B33F81000C0F34010BA
:102EE400704700BF500000200830044B33F8100036
:102EF40010F01C0018BF0120704700BF50000020D4
:102F04000830034B33F81000C0F34000704700BF93
:102F1400500000200830024B33F81000400B70477B
:102F240050000020002204E04FF0FF3383420FD012
:102F340001322F2A0AD802F10803064931F8133066
:102F440013F4807FF0D0C3F34323EFE700207047EE
:102F54000120704750000020002313B14FF0FF30D0
:102F64007047074A52F83320824201D00133F4E714
:102F7400034A02EBC30252688A42F7D118467047EB
:102F8400500000200830064B33F8100010F4807F06
:102F940004D0C0F3432003EBC00070470020704707
:102FA4005000002070B504460D46FFF7EBFF20B13A
:102FB4000668426829462046B047044B9B6823B103
:102FC400024AD26829462046984770BD5000002026
:102FD40000F108020E4B33F8123013F4807F16D040
:102FE40010B5C3F34324104623F4F853084A22F8D7
:102FF40010302046FFF796FF00B110BD04480023AF
:1030040040F8343021467430FFF72AFEF5E7704764
:103014005000002010B50446FFF75CFF50B1204675
:10302400FFF778FF084B00F5A270002243F8202038
:1030340043F820202046FFF7CBFF0834034B00223F
:1030440023F8142010BD00BF00D000505000002011
:1030540070B582B006460C461546FFF7B9FF24B397
:1030640029462046FFF778FF031E13DB104A42F877
:10307400334002EBC3014D605B029BB206F10800D2
:1030840032F810100B4343F4807322F810300948CF
:1030940002B070BD0DF107010748FFF7BDFD054BF8
:1030A4009842F5D19DF80730E0E70248F0E700BF09
:1030B400500000200000AD0BC400002038B50446C9
:1030C40018E094FAA4F3B3FA83F301229A4024EAB1
:1030D40002040A4A03F5A27352F82350C5F30525E6
:1030E40052F82300C0F3014002F00CFF01462846C9
:1030F400FFF758FF002CE4D138BD00BF00D00050CA
:1031040082B08446104B93E8030002AB03E903004A
:103114006046002309E002AA02EB830252F8082C5D
:10312400116A40F8041B11620133012BF3D9002307
:10313400012B04D85CF8232022B90133F8E70020DE
:1031440002B070470120FBE7E066000070B504465A
:103154000D461646084602F0D7FEC0B9022E4AD0E4
:10316400022004F01F026109012946D02949803256
:1031740051F8223023F4403343EA004341F822302B
:10318400032D3ED0022E3AD0032E3FD070BD2946E7
:103194002046FFF707FF04F01F036209012A24D029
:1031A4001C4A803352F82330C3F301439E42EDD1CD
:1031B40004F01F036209012A19D01649803351F81B
:1031C400232022F4403241F8232004F01F03640931
:1031D400012C0ED00F49803351F8232022F44032C1
:1031E40042EA064641F82360D0E70B4AD9E70A4988
:1031F400E4E70949EFE70320B3E70749B7E7012DFF
:10320400C2D129462046FFF7CDFEBFE7022DBDD12E
:10321400F7E700BF002584500028845070B584B0BF
:103224002D4A6B4692E8030083E80300002302A8BA
:1032340009E004AA02EB830252F8102C116A40F848
:10324400041B11620133012BF3D940E0234E05F135
:10325400800356F82320C2F30142FFF777FF0123CE
:10326400AB40336204AB03EB840353F8080C08B39C
:1032740090FAA0F0B0FA80F000EB441000F10802DC
:10328400174B33F81210C1F38201C50800F007028E
:103294000DF1080C012303FA02F21CF8053023EAAD
:1032A40002030CF8053000F01F054309012BCDD0B3
:1032B4000C4ECCE70134012CD4D90B4B0022C3F8BB
:1032C4007C21D3F87C3102A8FFF71AFF08B100244F
:1032D400F1E704B070BD00BFE06600000028845030
:1032E400500000200025845000D000502DE9F0410A
:1032F400044615461E4661B30F4602F0EDFD002854
:1033040040F0998004F01F026309012B43D04E481A
:1033140002F1800350F82330002F3ED00C2141F0FD
:10332400030123EA0103002F39D0397889000B43C4
:10333400803240F82230454A04F1080132F8113055
:1033440023F002039BB222F8113043F0010322F868
:103354001130BDB12F78D5F804802046FFF7D0FD99
:10336400F8B1B8F1000F68D1384A04F1080132F815
:10337400113023F01C039BB222F8113043EA870377
:1033840022F81130002E5CD0726831682046FFF7B5
:103394005FFEBDE8F0812E48BAE70021BFE70021B7
:1033A400C5E72A4A04F1080132F8113023F020035A
:1033B400DB04DB0C22F81130B8F1000FD4D0032F5A
:1033C4003DD86B681D7847B9224B05F5A2750022DC
:1033D40043F8252043F82520C6E7384602F093FD3C
:1033E4001C4B05F5A27253F8221021F0030143F897
:1033F400221053F8221021F44F3121F4407143F884
:10340400221053F822C0210201F47C51000400F47C
:10341400403001434CEA010143F822106B039BB294
:103424000A4A04F1080132F81100034343F020036F
:1034340022F8113098E70848ABE70748A9E706489F
:10344400A7E70648A5E700BF0025845050000020E8
:103454000028845000D000500400AD0B0000AD0BD8
:10346400F8B504461546002953D00E4602F043FD34
:1034740028B12046FFF72EFD002840F0A280204608
:10348400FFF732FD18B17378012B00F09C8006F130
:10349400010CB71C04F01F026309012B57D04D49DE
:1034A40002F1800351F82300BCF1000F51D0022334
:1034B40043F00103002F4ED04FF00C0E43EA0E03ED
:1034C400002E4BD04FF4706E43EA0E0320EA030043
:1034D400BCF1000F45D073785B0043F00103002F6B
:1034E40041D096F802C04FEA8C0C43EA0C03002E3C
:1034F4003CD03678360233430343803241F82230DD
:10350400354A04F1080132F8113043F0030322F87C
:103514001130002D59D0204602F0EDFC002856D180
:103524002B782E4A03F5A27142F8210042F82100BB
:10353400294904F1080031F8102022F02002D204B5
:10354400D20C21F810206A7892B92548F8BD254993
:10355400A6E70023ACE74FF0000EAFE74FF0000EF4
:10356400B2E70023B9E74FF0000CBEE70026C2E73C
:10357400AF781A4803F5A27550F8251021F4991173
:1035840021F4F85140F8251050F82560210201F487
:103594007C51120402F440320A43390501F48011CB
:1035A4000A43324340F825205B039BB20A4A08349D
:1035B40032F814100B4343F0200322F81430084867
:1035C400C4E70948C2E70848C0E70548BEE706481B
:1035D400BCE700BF002584505000002000D00050FC
:1035E4000000AD0B002884500400AD0B014B986023
:1035F400D96070475000002038B504460D46FFF7E7
:1036040069FC40B104F10800044B33F810305B0B43
:103614002B70034838BD0348FCE700BF500000206E
:103624000000AD0B0400AD0B104B93F878300BB1D8
:103634000F48704710B50D4C6022002104F11000B2
:1036440001F0E3FE0D20FDF719FF0A4B0022C3F839
:103654007C21D3F87C214FF00042C3F804230123DA
:1036640084F878306367044810BD00BF5000002020
:103674000500AD0B00D000500000AD0B034B93F8D8
:103684007800003818BF0120704700BF50000020A8
:1036940008B501460148FFF7E3FA08BDC000002061
:1036A40008B501460148FFF7B7FA08BDC00000207D
:1036B40038B504460D46FFF70DFC08B3204602F06A
:1036C4001AFCE8B12046FFF725FC830003F580735C
:1036D4009BB203F1A04303F5504300221A601B6818
:1036E400204A00F5A27152F8213043F0010342F858
:1036F40021307DB3012303FA00F0C2F8040329E06A
:1037040004F10803184A32F81330C3F38203042B7C
:1037140010D0052B1FD004F01F026309012B07D022
:10372400124B1B69D34013F0010F16D0032002E0A3
:103734000F4BF6E7032004F01F026409012C0ED09E
:103744000A49803251F8223023F4403343EA0043DB
:1037540041F8223038BD0220EDE70220EBE70449AE
:10376400EFE700BF00D00050500000200025845037
:103774000028845010B50446FFF7ACFBA0B12046E6
:1037840002F0B9FB80B12046FFF7C4FB012282405E
:103794000D4BC3F8082300F5A27053F8202022F043
:1037A400030243F820200CE004F01F036409012CF9
:1037B40008D00649803351F8232022F4403241F8DE
:1037C400232010BD0249F5E700D0005000258450A5
:1037D4000028845010B50446FFF772FB08B90D4861
:1037E40010BD2046FFF7C6FF2046FFF713FC04F088
:1037F4001F026409012C0BD00749803251F8223092
:1038040003F0E04343F0020341F822300348E7E7C2
:103814000349F2E70400AD0B002584500000AD0B12
:103824000028845038B501204FF4807300210C46E1
:1038340003E0400004339BB20131072914D803F19B
:10384400A04202F550421268002AF2D00C4AD2F883
:1038540004231042EDD003F1A04202F550420025AA
:10386400156012680443E4E7054BD3F87C311BB9B7
:103874002046FFF723FC38BDFFF7D0FCF8E700BF74
:1038840000D00050034B00E01833034A9342FBD3AB
:10389400704700BFFC6300005C64000070B506461E
:1038A400114B53F8204009E0404217E0EB681870D0
:1038B400EA68537843F0010353700834731C0A4ACE
:1038C40052F82330A3420DD96568236828469847E7
:1038D400002DF2D00028EBD00028E5DBFF28E5DD41
:1038E400FF20E3E770BD00BF1869000010B586B083
:1038F400114CB02303FB004400EB800C00EB4000B0
:103904000E4B03EBC0000E4B0593012304930F23CE
:10391400039300230293019300900A4B4FF4A07287
:10392400094901EB8C11204600F048F9637B23F030
:103934000403637306B010BDB80100205C090020C5
:10394400306900001D3D0000780F002008B50A4BC7
:1039540001221A700220FFF7A1FF01F097F803205B
:10396400FFF79CFF00F08EF9FCF75EFD034A137B22
:1039740023F00103137308BD730B002068020020B9
:1039840008B50146014A0248FDF746FE51390000D8
:103994006802002008B50348034A121A002102F005
:1039A400DFFA08BD98010020740B002010B504460E
:1039B400FFF79CFF0A49B02303FB0411094A04EBF7
:1039C400440302EBC303D9601C75074B03EBC42308
:1039D40003F5006304EB440402EBC404636010BD0C
:1039E400B80100205C090020B810002070B586B032
:1039F40000F0D6FD104D114BDD61114B05930123F1
:103A04000493002403940294019400940D4B4FF406
:103A140080620D49284600F0D1F806466B7B23F0FE
:103A240004036B73284602F06AFB2046FFF7BEFFCF
:103A3400304606B070BD00BF680200205C0900205B
:103A44003869000051390000780B002000B5ADB092
:103A54001D4B03F5006282F3088883F30A881B4C2C
:103A6400E02384F822300025E57725766576A5766F
:103A740084F82050636A43F4E023636284F823509B
:103A8400FDF710FFFDF7DCFC4FF0FF33A362E362A8
:103A9400FEF75CF9FDF7D4FF01248DF80D408DF895
:103AA4000C40269527952995094BC3F808D0FFF7B4
:103AB400E9FE2846FFF7F2FE2046FFF7EFFEFFF788
:103AC40095FFFFF75DFF00BFB810002000ED00E098
:103AD4005C09002010B5064C002000E01C34054BA6
:103AE4009C4204D2204602F043FA0028F6DA10BDC4
:103AF400440100204401002030B583B00D464FF04E
:103B04002004EFF3118184F31288BFF36F8F4469AB
:103B14006CB12C6043691B68436183690133836121
:103B2400002081F31188BFF36F8F03B030BD00F123
:103B3400080C53EA020404D100232B606FF00B003D
:103B4400EFE7009201930246604600F0FDFB002877
:103B5400EBD1024B9B685B692B60E6E75C090020B4
:103B64004FF02003EFF3118183F31288BFF36F8FBB
:103B74000A4B9B6A834204D11A6F084B9A6207E08E
:103B8400134613B11A6F8242FAD10BB1026F1A674E
:103B940081F31188BFF36F8F704700BF5C09002069
:103BA40008B553EA020102D102F045FA08BD024900
:103BB400183000F05DFEF9E73B6100002DE9F04F9D
:103BC40085B004460F4615461E46DDF838A0DDF8DC
:103BD4003C90DDF84080DDF84CB000F1580383657B
:103BE400C365129B0422119902F029FA2A46394628
:103BF400204602F00EFA0546CDF80880CDF8049070
:103C0400CDF800A03346024639462046FDF7E2FCD3
:103C1400002363652666C4F864A0C4F86890C4F8F9
:103C24006C804FF02003EFF3118283F31288BFF30B
:103C34006F8F134B996A21679C6282F31188BFF3DB
:103C44006F8FBBF1000F13D01F22594604F174008B
:103C540001F07FFB002384F89330094B9B685BB130
:103C6400D3F8A430C4F8A430284605B0BDE8F08FDA
:103C7400002384F87430F0E7C4F8A430F4E700BFFC
:103C84005C09002030B587B0214C14E0E36A059349
:103C9400236A0493E3690393A36902936369019319
:103CA40023690093E368A26861682068FFF786FFD0
:103CB40023685C653034174B9C42E7D300F0D8F995
:103CC400134C00E03034134B9C421CD2606AB0F1B8
:103CD400FF3FF7D0256820EAE070C117C90341EA25
:103CE4005041C00340F2E733C0184FF47A724FF0EA
:103CF400000341F10001FCF72BFA02460B4628466B
:103D0400FFF74EFFDEE700F0D5FB07B030BD00BF84
:103D1400440100204401002008B501E0FDF796FBB2
:103D24004FF02002EFF3118382F31288BFF36F8FF9
:103D340002F0E9FA054B9861054B1B78002BEDD096
:103D4400FDF79AF90028EBD1E8E700BF5C090020F1
:103D5400730B00202DE9F04383B004461D464FF059
:103D64002003EFF3118783F31288BFF36F8FC168C9
:103D740099B900294FD13A4B9B6893F90E302361CE
:103D84000131E160364B9B68A36087F31188BFF370
:103D94006F8F002003B0BDE8F08316468268304B75
:103DA4009B689A42E5D055EA06010CBF4FF0010822
:103DB4004FF0000831D092F90E90494693F90E0065
:103DC40002F04EF981452FDC4FF000090096019571
:103DD40022463946234800F0B7FA0028DAD04FF0DB
:103DE4002003EFF3118583F31288BFF36F8F2368E9
:103DF4009C421FD0F3B1216993F90E0002F030F90F
:103E04000146204602F037F9B0B9B9F1000F15D0D8
:103E14004FF0010812E02369B1E787F31188BFF37B
:103E24006F8F6FF00F00B5E70146204602F023F9CB
:103E34008146CBE72169E4E74FF00108B8F1000FB0
:103E440006D185F31188BFF36F8F6FF00A00A1E7E5
:103E54002946044800F0F0F86FF00A009AE700BF22
:103E64005C0900208809002038B5836883B30446C0
:103E74001A4A926893422ED1C368012B03D9013B9D
:103E8400C360002038BD4FF02003EFF3118583F3A6
:103E94001288BFF36F8F016902F0EDF8204602F03B
:103EA400CEF9A06068B190F90E3023610024C0F807
:103EB400AC4002F024F92946094800F0BDF8204638
:103EC400E0E70020E06085F31188BFF36F8FD9E746
:103ED4006FF01500D6E74FF0FF30D3E75C09002000
:103EE4008809002038B504464FF02003EFF311850C
:103EF40083F31288BFF36F8F02F0A1F948B1002257
:103F0400C0F8AC2002F0FBF82946074800F094F80A
:103F140038BDA368E268934203D001221344A3602E
:103F2400F2E70022FAE700BF8809002010B582B04A
:103F34004FF02004EFF3118184F31288BFF36F8FE5
:103F4400846844B1013C846081F31188BFF36F8FAE
:103F5400002002B010BD53EA020406D0009201937F
:103F64000246054800F0F0F9F3E781F31188BFF346
:103F74006F8F6FF00F00ECE788090020B3F1FF3F6B
:103F840008BFB2F1FF3F00D1704708B502491830AD
:103F940000F06EFC08BD00BF3B61000010B5074B8C
:103FA4001C6804B910BDFEF7DDFC0444044B1C611D
:103FB4000021024B186802F0BDF9F3E790090020D4
:103FC4005C09002070B504460D4600234FF0200222
:103FD400EFF3118682F31288BFF36F8F0EE002288D
:103FE400B8BF02201860114B1D60114B9868FFF791
:103FF400D5FF86F31188BFF36F8F0123A3B90C4B50
:1040040000221A61610CE30340F2E73018184FF400
:104014007A724FF0000341F10001FCF799F8054B67
:104024001860002CDBDCDEE770BD00BF8C090020CB
:104034005C0900209009002008B5084621B9EFF377
:10404400058313B9012100E0002111F0010F07D00D
:10405400064BDA699B689A4202D0FDF761FA03E0E5
:1040640080F31188BFF36F8F08BD00BF5C09002087
:1040740000234FF02002EFF3118182F31288BFF383
:104084006F8F09E0064B9A68D37B013BD37381F3AE
:104094001188BFF36F8F0123002BF3D0704700BF4B
:1040A4005C09002038B50446104802F021F80546A2
:1040B40070B184B90E4B9B685A7B12F01F0F0AD162
:1040C400AA6942B9DA897F2A05D9094AD3610BE082
:1040D400074BDD68EDE7064B9B68AB4202D02846F0
:1040E400FFF75CFF024BDD6138BD00BF7C09002097
:1040F4005C09002038B50546427B90F90D30002B51
:1041040028DB6B7B63F07F036B731A4B53F8204FF0
:104114009C422DD06CB12146284601F0C2FF0028F4
:1041240020DC34B1134B5B6A9C4202D02468002C1F
:10413400F0D1104B5A6A03F1200129606A601560BE
:104144005D620C4B9868A84214BF00200120FFF761
:10415400A9FF38BD02F07F0242730146064801F010
:10416400BFFFCEE763686B602C601D606560E8E7A5
:104174000024CFE75C0900207C09002038B5044600
:10418400074B9D686B7B13F01F0F04D02846FFF785
:1041940005FF204638BD2846FFF7ACFFF6E700BF11
:1041A4005C09002038B54FF02003EFF3118483F34A
:1041B4001288BFF36F8F224B9B68224A1268934286
:1041C40018D021461F4A002515601F4A126872B391
:1041D400DA897F2A16D85A7B12F01F0F1CD193F963
:1041E4000E501A4A1268954218DB194A934217D0A6
:1041F400012308E01846FFF7D1FE84F31188BFF3CA
:104204006F8F1BE0002393B10D4B1B69834209DDC3
:10421400181A0B4B18610DE00023F4E70023F2E7B2
:104224000023F0E72046FFF7A9FF014602E0044B14
:1042340000221A6181F31188BFF36F8F38BD00BF6C
:104244005C09002088090020900900208C090020C6
:10425400B801002038B5437B90F90D20002A2DDBEE
:10426400044613F01F0F05D182690AB1002202E04F
:10427400012200E000220AB363F07F036373144B4E
:1042840053F8205F9D4220D06DB12946204601F0AD
:1042940008FF002813DC35B10D4B5B6A9D4202D048
:1042A4002D68002DF0D10A4B5A6A03F120012160D8
:1042B400626014605C620020FFF7F4FE38BD6B6836
:1042C400636025601C606C60F5E70025DCE700BFD7
:1042D4005C09002010B54FF02003EFF3118483F341
:1042E4001288BFF36F8F437B13F0040F04D184F360
:1042F4001188BFF36F8F10BD23F004034373FFF7DE
:10430400A9FF21460148FFF797FEF4E78C09002036
:1043140010B50446427B90F90D30002B08DB084BA6
:104324009868A04214BF00200120FFF7BBFE10BD17
:1043340002F07F0242730146024801F0D1FEEEE72B
:104344005C0900207C09002010B50C461146064B80
:104354009868064B1860DDE9022301F04EFF204601
:10436400FDF7DEF810BD00BF5C09002088090020BD
:104374002DE9F84304460E4600234FF02002EFF3E4
:10438400118882F31288BFF36F8F1F4608E012F082
:10439400010711D1A67388F31188BFF36F8F01232E
:1043A4001A46002B3DD1637B13F01F0FEFD1A16997
:1043B4000029ECD10122EAE703F07F036373DFF8FD
:1043C40068902146484601F08BFEA673637B63F038
:1043D4007F036373D9F800504D4520D06DB1294651
:1043E400204601F05EFE002813DC35B10F4B5B6AFA
:1043F4009D4202D02D68002DF0D10C4B5A6A03F176
:1044040020012160626014605C620120FFF74AFEB3
:10441400C1E76B68636025601C606C60F5E700258C
:10442400DCE73846BDE8F8837C0900205C090020FD
:1044340038B50446183001F048FF00234FF020023D
:10444400EFF3118582F31288BFF36F8F10E0637B63
:1044540043F010036373154B9868A04214BF002007
:104464000120FFF71FFE85F31188BFF36F8F01232F
:1044740063B9627B94F90D30002BE8DA02F07F0215
:10448400627321460A4801F02BFEE0E7074B9B6864
:10449400A34200D038BD4FF02003EFF3118083F323
:1044A4001288BFF36F8F01F006FEF3E75C0900206A
:1044B4007C09002010B500234FF02002EFF3118493
:1044C40082F31288BFF36F8F0CE00D4B9A68D37B95
:1044D4000133D3730020FFF7E5FD84F31188BFF3A4
:1044E4006F8F0123002BF0D04FF02003EFF31180E6
:1044F40083F31288BFF36F8F01F0DDFD10BD00BFA1
:104504005C090020F8B5437B13F0080F45D105463C
:1045140043F00803437303F0DF03437313F0800F86
:104524002DD1AB685BB1284601F0B9FD294601F0F5
:10453400D7FD6B7B23F002036B730023AB6005F1A3
:10454400180001F0C2FE05F158073C68BC421ED0B9
:10455400ECB1204601F0A3FD214601F0C1FD637BCF
:1045640023F0020363730026A66004F1180001F02F
:10457400ACFEC4F8AC602046FFF76CFEE5E703F040
:104584007F0343730146054801F0AAFDC9E70120F2
:10459400FFF788FD2846FFF7E3FAF8BD7C09002001
:1045A40008B5044801F076FE00210846FFF70AFD2D
:1045B40008BD00BF78090020F8B54FF02003EFF3E1
:1045C400118683F31288BFF36F8F1C4CA1684B7B59
:1045D40003F07F034B7304F12007384601F080FD9C
:1045E400A5686B7B63F07F036B73246ABC4223D0A2
:1045F4006CB12146284601F054FD002816DC34B184
:104604000E4B5B6A9C4202D02468002CF0D10B4B09
:104614005A6A03F1200129606A6015605D62012015
:10462400FFF740FD3046FCF77BFFF8BD63686B6025
:104634002C601D606560F2E70024D9E75C09002066
:104644002DE9F04150EA010338D004460E466FF0DC
:1046540001031B1A4FF0FF3262EB0102012B72F1CE
:1046640000032FDB6FF001052D1A4FF02003EFF349
:10467400118883F31288BFF36F8F144FB868144BFB
:104684001860FFF745FEB8682246334611491830D2
:1046940000F0EEF8BA68537B43F0100353734046BE
:1046A400FCF73EFF01F071FE281A63EB03030128B7
:1046B40073F1000300DA0020BDE8F081FFF77CFF0E
:1046C4000020F9E701F061FE0519CEE75C0900203E
:1046D400880900203B61000008B5B1F1FF3F08BF25
:1046E400B0F1FF3F1AD0FFF7ABFF8446C217510168
:1046F40041EAD06143011B1A61EB0201880040EAE0
:1047040093709B0013EB0C0342EB0000C00040EAE3
:104714005370C3F3103343EA404008BD034B986819
:10472400FFF786FE4FF0FF30F7E700BF5C0900207B
:10473400014B9868704700BF5C09002038B54FF002
:104744002003EFF3118583F31288BFF36F8F037B8C
:1047540013F0010F09D10446437B13F0080F0FD067
:1047640085F31188BFF36F8F09E085F31188BFF3D8
:104774006F8F404080F311884FF0040002DF38BD92
:10478400FFF7C0FE084B9B68A34204D085F3118851
:10479400BFF36F8FF3E7EFF30583002BF6D12846C1
:1047A400FCF7BEFEF2E700BF5C09002008B506482E
:1047B400064A121A064901F0D7FB064A0649074879
:1047C40001F0D2FB08BD00BF0000002094010020CE
:1047D400046A000000000000046A000000000020D9
:1047E400034B1868984200D070470020FCE700BFD4
:1047F400CC00002030B1044A5268904201D00068D5
:1048040070470020704700BFCC00002008B5044B5F
:104814001B680BB1002008BDFEF7A4F8FBE700BF3E
:104824009409002010B5FFF7DBFF0446FFF7EEFF05
:104834007CB1236962691B1A62EBE070B3F1004F2B
:1048440070F1000208DA002801DB184606E00023B4
:10485400FBE76FF0004001E06FF00040034B1B6981
:1048640013B1834200DA184610BD00BF5C09002072
:10487400B3F1FF3F08BFB2F1FF3F7DD02DE9F04710
:10488400044692461D46816000234FF02002EFF358
:10489400118782F31288BFF36F8F21E01AF10108A8
:1048A40045F10009FFF7B2FF18EB000349EBE07094
:1048B4002361606136E0511A66EB030301614361D1
:1048C4004368636020601C60446000283ED0FFF7AA
:1048D40087FF844241D087F31188BFF36F8F012390
:1048E400002B47D153466FF00101B1EB0A014FF0A1
:1048F400FF3060EB0502002AD0DB204A11685268C1
:104904005B1842EB05026FF00101CB1A60EB020267
:1049140018461146012B72F1000301DA012000212F
:1049240020616161FFF75CFF0028CED0026946690F
:1049340021696369914273EB060CBCDB891A63EB52
:10494400060321616361FFF755FFEDE70C4B5A68DD
:104954002360626014605C60B9E7FFF763FF03469D
:1049640018B1084A12698242B5D000211846FDF7F1
:10497400C7FFB0E7BDE8F087704700BF1803002009
:10498400CC0000205C09002070B50446FFF70AFC47
:104994004FF02003EFF3118683F31288BFF36F8F78
:1049A400284B1C6021E0284A136851685B1941EBCD
:1049B400E5711360516000220023C4E904232046FA
:1049C40001F06CFC86F31188BFF36F8FA368204657
:1049D40098474FF02003EFF3118683F31288BFF357
:1049E4006F8F184A13685B1B1360FFF7F9FE0446C8
:1049F40040B105694269134B1B68D917AB4271EB8F
:104A04000203D0DA44B10F4B1968236962695B1A57
:104A140062EBE172236162610B4A0A4D28681368F4
:104A240051681B1841EBE0711360516000242C6045
:104A3400FFF7F8FE2146FDF763FF86F31188BFF305
:104A44006F8F70BD940900201803002010B5002258
:104A54004FF02003EFF3118483F31288BFF36F8FB9
:104A6400134611460CE0FFF7D1FE074A136851685C
:104A7400C31841EBE07184F31188BFF36F8F0122F7
:104A8400002AF0D0184610BD1803002008B5034AC8
:104A94000349044800F0A8F908BD00BF48670000B6
:104AA400406900005069000010B50A4C23681BB12E
:104AB40001230020236010BD00F0DCF80028F7D0AB
:104AC4000138072803D8044B53F8200010BD0348CD
:104AD40010BD00BF9809002078690000FE8FFFFF19
:104AE400BFF34F8F0549064BCA6802F4E0621343D3
:104AF400CB60BFF34F8F00BFFDE700BF00ED00E0C8
:104B04000400FA0530B44FF0FE3200250B4B0C4C78
:104B14000C494968C3F80024C3F80424C3F80824E2
:104B2400C3F80C24C3F81024C3F81424C3F81824BD
:104B3400C3F81C24C4F8005530BC08470050845006
:104B440000408450D4000020024BD0E90012C3E995
:104B540000127047D400002010B5044630B16368D9
:104B6400DB0602D500232360636010BD024B0348BB
:104B74005B689847F3E700BFD40000209869000001
:104B8400B0B1436893B1DB060ED5012350E8002F82
:104B9400194640E8001C9CF0000FF7D1012AF5D01B
:104BA400BFF35F8F00207047034870470348704786
:104BB4006FF4E040704700BFE98FFFFFEA8FFFFF0B
:104BC400034668B142683AB1D20607D5BFF35F8F96
:104BD400002210461A607047034870470348704724
:104BE4006FF4E040704700BFEA8FFFFFE98FFFFFDB
:104BF40010B5044620B1002211232260636010BD69
:104C04000148FFF77FFFF6E7C069000070B5164C56
:104C1400D0F804C00668C4F804C0D0F808C0C0685E
:104C2400C4F808C0E06026600868104B104D186096
:104C34004868D5F81821586088689860C868096978
:104C4400D8601961D3060DD5002305F58A70C5E92E
:104C54004533C5E96E33B047236805F5DC70BDE81C
:104C64007040184770BD00BFE4000020F40000202D
:104C7400B009002008B500F011F830B900F010F8C0
:104C840038B9054AC2F80C0A08BD00F037F8032009
:104C940008BD042008BD00BF0050845000207047A8
:104CA40010B5114800F048F800B110BD0F4800F0ED
:104CB40043F80028F9D10E4C204600F03DF80028B6
:104CC400F3D10C4B0C481C6000F036F80146002868
:104CD400EBD100F02DF8044608B1204610BD00F0D9
:104CE4003FF82046FAE700BF2C01002020010020F5
:104CF40028010020300100202401002008B50848C4
:104D040000F024F8074800F021F8074800F01EF8E6
:104D1400064800F01BF8BDE8084000F00BB800BFDF
:104D24002C01002020010020280100202401002063
:104D340000207047704700BF08B5034B02681B682A
:104D440010689847002008BDE400002008B5034B14
:104D540002685B6810689847002008BDE4000020E2
:104D640070B5094C094D2069AB68984718B1084BD8
:104D740008485B6898470021074AEB68116020697E
:104D8400BDE87040184700BFF4000020E400002094
:104D9400D4000020E4690000AC090020024658B1A8
:104DA400436803F00303012B03D0032B07D10368EB
:104DB40043B10020906070476FF0150070476FF0AA
:104DC400150070476FF0150070470346426802F003
:104DD40003028160032A03D1006800225A607047ED
:104DE4000020FAE7002070470FB400B583B004A98F
:104DF40051F8040B0191FBF74BFB03B05DF804EB96
:104E040004B0704701F00703018B21F00701194337
:104E1400018370472DE9F04106460F4690468168AC
:104E240019B10C4631B10C6804E00C4602E023468B
:104E340021461C4659B14D6843463A463046A84778
:104E4400002CF4D02346002CF2D02368F0E7BDE810
:104E5400F081038B13F0070303D102680AB1032026
:104E64007047022B03D0012B06D000207047428BE1
:104E7400002AF8D10420704703680BB1052070475D
:104E84000020704710B504468C46038B002A07DBCC
:104E940003F007035A1F012A0ED9042B33D010BD87
:104EA400D0E900018CE80300002323606360012142
:104EB4002046FFF7A7FFF2E7D0E900018CE80300E2
:104EC400002222606260062B18D1DCF800303BB16E
:104ED400628B01326283002BF9D01B68002BF6D160
:104EE40002212046FFF78EFF2046FFF7B2FF00287D
:104EF400D5D0238B43F020032383D0E70021204621
:104F0400FFF780FFF0E70021FFF77CFF2046FFF763
:104F1400A0FF0028C3D0238B43F020032383BEE7E4
:104F240058B110B50C4659B1081DFFF737FF18B931
:104F3400A36833F0030306D110BD6FF0150070476A
:104F44006FF01500F8E76FF01500F5E72DE9F04173
:104F540007460C4616461D461946201DFFF735FF29
:104F640028B180462B46324621463846C047BDE824
:104F7400F0812DE9F04180460C4617461E4604E0B8
:104F840033463A464046FFF7E1FF216831B10D68E8
:104F9400256063688B42F3D16560F1E7BDE8F08179
:104FA40008B54FF0200CEFF311828CF31288BFF395
:104FB4006F8F41610121FBF779FA08BD034670B197
:104FC40081B10A688AB14A6892B1002018605860B9
:104FD4009860D860186158619861196170476FF0E2
:104FE400150070476FF0150070476FF0150070479B
:104FF4006FF015007047F8B504460F46FFF790FFB1
:10500400061E37DB4FF02003EFF3118283F312887F
:10501400BFF36F8F258B05F00705638B4FF6FF7188
:105024008B422FD02E46022D0CD08DB1042D0FD0E3
:10503400062D0DD0052D1FD06FF0040600210B4660
:1050440008460AE00133638301210023184604E083
:10505400B5FA85F35B090021012028B100203860EE
:105064006068A8B107606760ABB982F31188BFF3C9
:105074006F8FA9B93046F8BD6FF0850600210B4645
:105084000846EAE76FF00A0600210B460846E4E703
:1050940067602760E8E702212046FBF707FAE9E7A3
:1050A40000232A4639462046FFF750FFE2E708B5B9
:1050B4000446084611461A46A047FFF739FBFCF799
:1050C400A5FC84460268002005E000EB8000013264
:1050D40003EB400030381378A3F130010929F4D9E7
:1050E400CCF8002070472DE9F04F83B004460D46FC
:1050F40001929A460C9ED378A3F1410B6F2B0FD0EB
:1051040006D9702B0FD0782B10D14FF0100926E060
:10511400582B02D04FF00A0921E04FF010091EE08D
:105124004FF008091BE04FF0100918E04FF00A098E
:1051340015E0BBF1190F21D8D2B23732D2B206F83A
:10514400012D3A46434620462946FBF701F8BC4266
:1051540075F1000316D3564514D904460D464FF095
:1051640000084F464A46434620462946FAF7F0FFD0
:10517400092ADED8D2B23032D2B2E0E7D2B2573204
:10518400D2B2DCE7019B1B7813F0200F05D0B9F1F4
:10519400080F06D0B9F1100F09D0304603B0BDE8AE
:1051A400F08F019A937843F008039370F5E7019A1E
:1051B400937843F010039370EFE72DE9F04107462D
:1051C4000E4614469846002506E0314614F8010BB5
:1051D400B847002809DB01354445F6D3B8F1000F80
:1051E40002D12378002BF0D12846BDE8F081704726
:1051F400002383F31188BFF36F8F7047002070473B
:1052040008B50020FBF770FE08B500F08FFE08BD5E
:1052140008B501460068FFF7F7FF08BD08B500218F
:105224000120FFF7F1FF08BD08B5FCF759F9FCF7B9
:1052340029FA08BDD0F8983083F30B887047002012
:10524400704700230B70704708B500231370CB1E02
:10525400092B1AD8DFE803F005090D1119191919DA
:1052640019141146FCF794FA10E00021FCF718FA1F
:105274000CE00021FCF74AFA08E0FCF771FA05E0BB
:105284001146FFF7DEFF002000E0002008BD40E8E3
:1052940000F010F4803F01D0C0B270476FF01500E9
:1052A400704708B50B6823F01F0C0B7A03F01F0E30
:1052B400CA6822F01F025B0942EA430242F001027B
:1052C4004CEA0E01FCF7E6FB08BD43681F2B0AD924
:1052D40013F01F0F01D000207047036813F01F0F55
:1052E40003D0002070470020704701207047072832
:1052F40005D810B50446FFF7D4FF204610BD6FF063
:105304001500704710B584B00B6800934C68B1F871
:1053140008C09DF808206CF304028DF80820498920
:10532400D2B261F347128DF8082023F01F032344FF
:10533400013B23F01F0303936946FFF7D8FF04B032
:1053440010BD08B5FCF784FC08BD08B5FCF78AFC61
:1053540008BD0346A2B110B40C782CB103F8014B7C
:105364000131013A002AF7D122B1002103F8011BCF
:10537400013AF9E710BC7047002103F8011B013A18
:10538400002AF9D170470346002001E001330130BF
:105394001A78002AFAD170470346002001E001334D
:1053A40001301A780AB18842F9D3704780EA0103C0
:1053B40013F0030F01D0034623E0034613F0030F59
:1053C4000FD00AB311F801CB03F801CB013AF5E78A
:1053D40011F801CB03F801CB013A002AF8D110BC33
:1053E4007047032A0DD910B451F8044B43F8044B09
:1053F400043A032AF8D8F0E711F801CB03F801CBFB
:10540400013A002AF8D1704770475FFA81FC0346DD
:1054140002E003F801CB013A13F0030F02D0002A93
:10542400F7D10FE0C9B241EA012141EA0141032A5F
:1054340006D943F8041B043AF9E703F801CB013A0F
:10544400002AFAD170474FF0FF307047006901EB32
:1054540041018900703108447047406800EBC10085
:1054640070470069C1EBC10100EB8100704708B5CA
:10547400C9B2FFF7EBFF806800F0070008BD4FF0EA
:105484002003EFF3118283F31288BFF36F8F036855
:1054940013F0C00301D08B4207D101230360002025
:1054A40082F31188BFF36F8F70474FF0FF30F7E737
:1054B4004FF02003EFF3118283F31288BFF36F8F51
:1054C400036803F0C00C03F00703012B08D08C45DC
:1054D40009D04FF0FF3082F31188BFF36F8F70470C
:1054E40001600020F7E76FF07700F4E74FF0200346
:1054F400EFF3118283F31288BFF36F8F036803F015
:10550400C00343F00203036082F31188BFF36F8F7B
:105514007047F8B506460C46FFF798FF05684768DC
:10552400002340F8083BFFF7E1FF1DB13A4621464E
:105534003046A847F8BD70B506461546CCB221469C
:10554400FFF784FF29460830FFF799FF002806DBA0
:1055540021463046FFF781FF43689847002070BD1D
:1055640008B58022FFF7E7FF08BD2DE9F0410646A4
:1055740090461F46CDB22946FFF768FF04460699B8
:105584000830FFF795FF002809DBC4F80080676046
:1055940029463046FFF761FF036898470020BDE8BD
:1055A400F08110B582B080240094FFF7DEFF02B0D2
:1055B40010BD10B51446C9B2FFF753FF0021A04730
:1055C40010BD08B5012000F00EFC08BD08B503208D
:1055D40000F009FC08BD08B5022000F004FC08BD79
:1055E40008B5002000F0FFFB08BD08B5012000F05D
:1055F4006FFC08BD08B5032000F06AFC08BD08B5BF
:10560400022000F065FC08BD08B5002000F060FC35
:1056140008BD08B51046FEF765FC08BD20F0F9008A
:105624008005800DB0F5837F33D016D806282CD0A2
:1056340006D9B0F5807F0DD101230B70002070478F
:1056440000B3022803D104230B70002070476FF0CD
:10565400150070476FF01500704740F2022398421E
:105664001BD0B0F5407F03D103230B70002070479B
:10567400B0F5007F03D102230B70002070476FF058
:105684001500704700200870704706230B70002037
:10569400704707230B700020704705230B70002010
:1056A400704710F0100F04D110F0200F03D1002028
:1056B4007047032070470120704743685B681B698B
:1056C4000B600020704743685B6802EA010021EA2E
:1056D40002019860D9600020704743685B68996054
:1056E4000020704743685B68D960002070474368B6
:1056F4005A68536821EA03000B409060D36000208D
:105704007047B0F5800F07D0B1F1C06F0DD0B1F183
:10571400007F08D001207047B1F1007F01D005203F
:10572400704704207047022070470320704710B46C
:10573400046904F1040C6368FBB100200DE00B68FC
:105744006360DCF80400814212D1CCF804300FE02D
:10575400CCF804000CE018461B6863B19942FAD1F6
:105764000028ECD00B680360DCF804309942EFD0D9
:1057740000230B60012303B962B172B163680B604B
:105784006160DCF804300BB1002007E0CCF80410B1
:10579400002003E06FF0150000E0002010BC70470B
:1057A40070B500F01F044009FCF792FCD8B106461E
:1057B40003690125A540596819B10C4649B10C6823
:1057C40007E00C4605E064B1234604B12368214692
:1057D4001C4641B18A682A40F5D04B683046984748
:1057E400F1E72346F3E770BD43681B684FF02001DF
:1057F400EFF3118281F31288BFF36F8FD3F8201176
:1058040031B10021C3F82011D3F820110121D9604E
:1058140082F31188BFF36F8F704738B545682C68E1
:10582400D4F8043313F4807F02D0D4F82031D3B9F0
:105834006B6813F0100F15D04FF02002EFF31183B3
:1058440082F31288BFF36F8FD4F8582112B100226B
:10585400C4F800254FF48002C4F8082383F31188A8
:10586400BFF36F8F38BDFFF7BFFFE1E770B582B0BC
:1058740005460C4606694B79012B06D0032B11D043
:105884006FF08502104602B070BD00238DF802301F
:10589400A379032B46D1E37943B1012B15D06FF0E3
:1058A4008502EFE710238DF80230F1E700238DF82D
:1058B40000300023ADF804302379012B2AD0022BC9
:1058C40024D033B16FF08502DCE701238DF800307A
:1058D400EFE78DF8013021682846FCF711FD0246F8
:1058E40018BB6B6819689DF801309DF802000343EA
:1058F400BDF8040003439DF800000343C1F86C3570
:10590400043694E8030086E80300BBE70E238DF811
:105914000130E0E70E238DF801304FF48073ADF8C9
:105924000430D8E76FF08502ACE76FF08502A9E791
:105934000A460369043393E8030082E80300002065
:10594400704743681B68D3F88004C3F88004704729
:1059540043681A685B6803F00203D2F8581129B946
:1059640033B9D2F820312BB9002070470120704799
:10597400002070470120704743681B680822C3F861
:105984000025704710B543681C68C4F84415C4F872
:1059940048250022C4F82021D4F82011C4F8582145
:1059A400D4F858215B6813F0100F02D10123A360CF
:1059B40010BD0121FFF7E0FF4FF48003C4F8043366
:1059C400F4E710B4046943681B68D3F810215AB192
:1059D400626912780A700020C3F81001D3F810210C
:1059E40001221A6010BC70474FF0FF30FAE770B51F
:1059F400064614E07DB14FF02003EFF3118483F3E6
:105A04001288BFF36F8F3046FFF7A2FFA0B984F36B
:105A14001188BFF36F8F21200021FEF75DFE6424FF
:105A24003046FFF795FF05460028E3D1012000F03A
:105A3400AEF9013CF4D1DDE7204670BD2DE9F04319
:105A440083B0054647683E68D0F810800021C6F848
:105A54000015C8F80000D7F80C9001AA484600F0D9
:105A6400D3F8041E07DB019BD9F8002019791868C4
:105A7400FCF7A6FF0446002C35DB08F10401284698
:105A8400FFF7F4FE044670BB7B6813F0020F2ED1BF
:105A94000823C6F800353B7A5BB9C6F81031D6F84E
:105AA4001031D8F81430C6F834350123C6F8383527
:105AB40033607B6813F0020F03D14FF48073C6F890
:105AC40004337B6813F0100F03D04FF48003C6F83F
:105AD4000433D8F81030C6F844350023C6F84835E6
